{"abi":[{"inputs":[],"stateMutability":"nonpayable","type":"constructor"},{"anonymous":false,"inputs":[{"indexed":true,"internalType":"address","name":"_approver","type":"address"},{"indexed":true,"internalType":"uint256","name":"_date","type":"uint256"}],"name":"AddApprovers","type":"event"},{"anonymous":false,"inputs":[{"indexed":true,"internalType":"address","name":"_approver","type":"address"},{"indexed":true,"internalType":"uint256","name":"_date","type":"uint256"}],"name":"DeleteApprovers","type":"event"},{"anonymous":false,"inputs":[{"indexed":true,"internalType":"address","name":"_sender","type":"address"},{"indexed":false,"internalType":"uint256","name":"_amount","type":"uint256"},{"indexed":true,"internalType":"uint256","name":"_date","type":"uint256"}],"name":"Deposited","type":"event"},{"anonymous":false,"inputs":[{"indexed":true,"internalType":"address","name":"_sender","type":"address"},{"indexed":true,"internalType":"uint256","name":"_id","type":"uint256"},{"indexed":true,"internalType":"uint256","name":"_date","type":"uint256"}],"name":"RequestApproved","type":"event"},{"anonymous":false,"inputs":[{"indexed":true,"internalType":"address","name":"_sender","type":"address"},{"indexed":true,"internalType":"uint256","name":"_id","type":"uint256"},{"indexed":true,"internalType":"uint256","name":"_date","type":"uint256"}],"name":"RequestCreated","type":"event"},{"anonymous":false,"inputs":[{"indexed":true,"internalType":"address","name":"_sender","type":"address"},{"indexed":true,"internalType":"uint256","name":"_id","type":"uint256"},{"indexed":true,"internalType":"uint256","name":"_date","type":"uint256"}],"name":"RequestFinalized","type":"event"},{"inputs":[{"internalType":"address","name":"_approver","type":"address"}],"name":"addApprover","outputs":[],"stateMutability":"nonpayable","type":"function"},{"inputs":[{"internalType":"uint256","name":"index","type":"uint256"}],"name":"approveRequest","outputs":[],"stateMutability":"nonpayable","type":"function"},{"inputs":[{"internalType":"address","name":"","type":"address"}],"name":"approvers","outputs":[{"internalType":"bool","name":"","type":"bool"}],"stateMutability":"view","type":"function"},{"inputs":[{"internalType":"string","name":"description","type":"string"},{"internalType":"uint256","name":"value","type":"uint256"},{"internalType":"address","name":"recipient","type":"address"}],"name":"createRequest","outputs":[],"stateMutability":"nonpayable","type":"function"},{"inputs":[{"internalType":"uint256","name":"index","type":"uint256"}],"name":"finalizeRequest","outputs":[],"stateMutability":"nonpayable","type":"function"},{"inputs":[],"name":"getRequestsCount","outputs":[{"internalType":"uint256","name":"","type":"uint256"}],"stateMutability":"view","type":"function"},{"inputs":[],"name":"getSummary","outputs":[{"internalType":"uint256","name":"","type":"uint256"},{"internalType":"uint256","name":"","type":"uint256"},{"internalType":"uint256","name":"","type":"uint256"},{"internalType":"address","name":"","type":"address"}],"stateMutability":"view","type":"function"},{"inputs":[{"internalType":"address","name":"_approver","type":"address"}],"name":"removeApprover","outputs":[],"stateMutability":"nonpayable","type":"function"},{"inputs":[{"internalType":"uint256","name":"","type":"uint256"}],"name":"requests","outputs":[{"internalType":"string","name":"description","type":"string"},{"internalType":"uint256","name":"value","type":"uint256"},{"internalType":"address","name":"recipient","type":"address"},{"internalType":"bool","name":"complete","type":"bool"},{"internalType":"uint256","name":"approvalCount","type":"uint256"}],"stateMutability":"view","type":"function"},{"stateMutability":"payable","type":"receive"}],"devdoc":{"kind":"dev","methods":{},"version":1},"evm":{"assembly":"    /* \"TaskRewardTreasure.sol\":271:3778  contract TaskRewardTreasure {... */\n  mstore(0x40, 0x80)\n    /* \"TaskRewardTreasure.sol\":1555:1604  constructor() {... */\n  callvalue\n  dup1\n  iszero\n  tag_1\n  jumpi\n  0x00\n  dup1\n  revert\ntag_1:\n  pop\n    /* \"TaskRewardTreasure.sol\":1587:1597  msg.sender */\n  caller\n    /* \"TaskRewardTreasure.sol\":1579:1584  owner */\n  0x00\n  dup1\n    /* \"TaskRewardTreasure.sol\":1579:1597  owner = msg.sender */\n  0x0100\n  exp\n  dup2\n  sload\n  dup2\n  0xffffffffffffffffffffffffffffffffffffffff\n  mul\n  not\n  and\n  swap1\n  dup4\n  0xffffffffffffffffffffffffffffffffffffffff\n  and\n  mul\n  or\n  swap1\n  sstore\n  pop\n    /* \"TaskRewardTreasure.sol\":271:3778  contract TaskRewardTreasure {... */\n  dataSize(sub_0)\n  dup1\n  dataOffset(sub_0)\n  0x00\n  codecopy\n  0x00\n  return\nstop\n\nsub_0: assembly {\n        /* \"TaskRewardTreasure.sol\":271:3778  contract TaskRewardTreasure {... */\n      mstore(0x40, 0x80)\n      jumpi(tag_1, lt(calldatasize, 0x04))\n      shr(0xe0, calldataload(0x00))\n      dup1\n      0x6cf4c88f\n      gt\n      tag_12\n      jumpi\n      dup1\n      0x6cf4c88f\n      eq\n      tag_7\n      jumpi\n      dup1\n      0x81d12c58\n      eq\n      tag_8\n      jumpi\n      dup1\n      0x8a9cfd55\n      eq\n      tag_9\n      jumpi\n      dup1\n      0xb646c194\n      eq\n      tag_10\n      jumpi\n      dup1\n      0xd7d1bbdb\n      eq\n      tag_11\n      jumpi\n      jump(tag_2)\n    tag_12:\n      dup1\n      0x03441006\n      eq\n      tag_3\n      jumpi\n      dup1\n      0x0a144391\n      eq\n      tag_4\n      jumpi\n      dup1\n      0x3410452a\n      eq\n      tag_5\n      jumpi\n      dup1\n      0x4051ddac\n      eq\n      tag_6\n      jumpi\n      jump(tag_2)\n    tag_1:\n      jumpi(tag_2, calldatasize)\n        /* \"TaskRewardTreasure.sol\":1683:1698  block.timestamp */\n      timestamp\n        /* \"TaskRewardTreasure.sol\":1660:1670  msg.sender */\n      caller\n        /* \"TaskRewardTreasure.sol\":1650:1699  Deposited(msg.sender, msg.value, block.timestamp) */\n      0xffffffffffffffffffffffffffffffffffffffff\n      and\n      0x73a19dd210f1a7f902193214c0ee91dd35ee5b4d920cba8d519eca65a7b488ca\n        /* \"TaskRewardTreasure.sol\":1672:1681  msg.value */\n      callvalue\n        /* \"TaskRewardTreasure.sol\":1650:1699  Deposited(msg.sender, msg.value, block.timestamp) */\n      mload(0x40)\n      tag_15\n      swap2\n      swap1\n      tag_16\n      jump\t// in\n    tag_15:\n      mload(0x40)\n      dup1\n      swap2\n      sub\n      swap1\n      log3\n        /* \"TaskRewardTreasure.sol\":271:3778  contract TaskRewardTreasure {... */\n      stop\n    tag_2:\n      0x00\n      dup1\n      revert\n        /* \"TaskRewardTreasure.sol\":2919:3445  function finalizeRequest(uint index) public approvereds {... */\n    tag_3:\n      callvalue\n      dup1\n      iszero\n      tag_17\n      jumpi\n      0x00\n      dup1\n      revert\n    tag_17:\n      pop\n      tag_18\n      0x04\n      dup1\n      calldatasize\n      sub\n      dup2\n      add\n      swap1\n      tag_19\n      swap2\n      swap1\n      tag_20\n      jump\t// in\n    tag_19:\n      tag_21\n      jump\t// in\n    tag_18:\n      stop\n        /* \"TaskRewardTreasure.sol\":609:650  mapping(address => bool) public approvers */\n    tag_4:\n      callvalue\n      dup1\n      iszero\n      tag_22\n      jumpi\n      0x00\n      dup1\n      revert\n    tag_22:\n      pop\n      tag_23\n      0x04\n      dup1\n      calldatasize\n      sub\n      dup2\n      add\n      swap1\n      tag_24\n      swap2\n      swap1\n      tag_25\n      jump\t// in\n    tag_24:\n      tag_26\n      jump\t// in\n    tag_23:\n      mload(0x40)\n      tag_27\n      swap2\n      swap1\n      tag_28\n      jump\t// in\n    tag_27:\n      mload(0x40)\n      dup1\n      swap2\n      sub\n      swap1\n      return\n        /* \"TaskRewardTreasure.sol\":3684:3776  function getRequestsCount() public view returns (uint) {... */\n    tag_5:\n      callvalue\n      dup1\n      iszero\n      tag_29\n      jumpi\n      0x00\n      dup1\n      revert\n    tag_29:\n      pop\n      tag_30\n      tag_31\n      jump\t// in\n    tag_30:\n      mload(0x40)\n      tag_32\n      swap2\n      swap1\n      tag_16\n      jump\t// in\n    tag_32:\n      mload(0x40)\n      dup1\n      swap2\n      sub\n      swap1\n      return\n        /* \"TaskRewardTreasure.sol\":3455:3674  function getSummary() public view returns (... */\n    tag_6:\n      callvalue\n      dup1\n      iszero\n      tag_33\n      jumpi\n      0x00\n      dup1\n      revert\n    tag_33:\n      pop\n      tag_34\n      tag_35\n      jump\t// in\n    tag_34:\n      mload(0x40)\n      tag_36\n      swap5\n      swap4\n      swap3\n      swap2\n      swap1\n      tag_37\n      jump\t// in\n    tag_36:\n      mload(0x40)\n      dup1\n      swap2\n      sub\n      swap1\n      return\n        /* \"TaskRewardTreasure.sol\":1902:2093  function removeApprover(address _approver) public restricted {... */\n    tag_7:\n      callvalue\n      dup1\n      iszero\n      tag_38\n      jumpi\n      0x00\n      dup1\n      revert\n    tag_38:\n      pop\n      tag_39\n      0x04\n      dup1\n      calldatasize\n      sub\n      dup2\n      add\n      swap1\n      tag_40\n      swap2\n      swap1\n      tag_25\n      jump\t// in\n    tag_40:\n      tag_41\n      jump\t// in\n    tag_39:\n      stop\n        /* \"TaskRewardTreasure.sol\":530:571  mapping (uint => Request) public requests */\n    tag_8:\n      callvalue\n      dup1\n      iszero\n      tag_42\n      jumpi\n      0x00\n      dup1\n      revert\n    tag_42:\n      pop\n      tag_43\n      0x04\n      dup1\n      calldatasize\n      sub\n      dup2\n      add\n      swap1\n      tag_44\n      swap2\n      swap1\n      tag_20\n      jump\t// in\n    tag_44:\n      tag_45\n      jump\t// in\n    tag_43:\n      mload(0x40)\n      tag_46\n      swap6\n      swap5\n      swap4\n      swap3\n      swap2\n      swap1\n      tag_47\n      jump\t// in\n    tag_46:\n      mload(0x40)\n      dup1\n      swap2\n      sub\n      swap1\n      return\n        /* \"TaskRewardTreasure.sol\":2099:2487  function createRequest(string memory description, uint value, address recipient) public approvereds {... */\n    tag_9:\n      callvalue\n      dup1\n      iszero\n      tag_48\n      jumpi\n      0x00\n      dup1\n      revert\n    tag_48:\n      pop\n      tag_49\n      0x04\n      dup1\n      calldatasize\n      sub\n      dup2\n      add\n      swap1\n      tag_50\n      swap2\n      swap1\n      tag_51\n      jump\t// in\n    tag_50:\n      tag_52\n      jump\t// in\n    tag_49:\n      stop\n        /* \"TaskRewardTreasure.sol\":1712:1896  function addApprover(address _approver) public restricted {... */\n    tag_10:\n      callvalue\n      dup1\n      iszero\n      tag_53\n      jumpi\n      0x00\n      dup1\n      revert\n    tag_53:\n      pop\n      tag_54\n      0x04\n      dup1\n      calldatasize\n      sub\n      dup2\n      add\n      swap1\n      tag_55\n      swap2\n      swap1\n      tag_25\n      jump\t// in\n    tag_55:\n      tag_56\n      jump\t// in\n    tag_54:\n      stop\n        /* \"TaskRewardTreasure.sol\":2493:2913  function approveRequest(uint index) public {... */\n    tag_11:\n      callvalue\n      dup1\n      iszero\n      tag_57\n      jumpi\n      0x00\n      dup1\n      revert\n    tag_57:\n      pop\n      tag_58\n      0x04\n      dup1\n      calldatasize\n      sub\n      dup2\n      add\n      swap1\n      tag_59\n      swap2\n      swap1\n      tag_20\n      jump\t// in\n    tag_59:\n      tag_60\n      jump\t// in\n    tag_58:\n      stop\n        /* \"TaskRewardTreasure.sol\":2919:3445  function finalizeRequest(uint index) public approvereds {... */\n    tag_21:\n        /* \"TaskRewardTreasure.sol\":1447:1452  owner */\n      0x00\n      dup1\n      sload\n      swap1\n      0x0100\n      exp\n      swap1\n      div\n      0xffffffffffffffffffffffffffffffffffffffff\n      and\n        /* \"TaskRewardTreasure.sol\":1433:1452  msg.sender == owner */\n      0xffffffffffffffffffffffffffffffffffffffff\n      and\n        /* \"TaskRewardTreasure.sol\":1433:1443  msg.sender */\n      caller\n        /* \"TaskRewardTreasure.sol\":1433:1452  msg.sender == owner */\n      0xffffffffffffffffffffffffffffffffffffffff\n      and\n      eq\n        /* \"TaskRewardTreasure.sol\":1432:1480  (msg.sender == owner) || (approvers[msg.sender]) */\n      dup1\n      tag_62\n      jumpi\n      pop\n        /* \"TaskRewardTreasure.sol\":1458:1467  approvers */\n      0x03\n        /* \"TaskRewardTreasure.sol\":1458:1479  approvers[msg.sender] */\n      0x00\n        /* \"TaskRewardTreasure.sol\":1468:1478  msg.sender */\n      caller\n        /* \"TaskRewardTreasure.sol\":1458:1479  approvers[msg.sender] */\n      0xffffffffffffffffffffffffffffffffffffffff\n      and\n      0xffffffffffffffffffffffffffffffffffffffff\n      and\n      dup2\n      mstore\n      0x20\n      add\n      swap1\n      dup2\n      mstore\n      0x20\n      add\n      0x00\n      keccak256\n      0x00\n      swap1\n      sload\n      swap1\n      0x0100\n      exp\n      swap1\n      div\n      0xff\n      and\n        /* \"TaskRewardTreasure.sol\":1432:1480  (msg.sender == owner) || (approvers[msg.sender]) */\n    tag_62:\n        /* \"TaskRewardTreasure.sol\":1424:1531  require((msg.sender == owner) || (approvers[msg.sender]), \"Only owner and approvers can request withdraw!\") */\n      tag_63\n      jumpi\n      mload(0x40)\n      0x08c379a000000000000000000000000000000000000000000000000000000000\n      dup2\n      mstore\n      0x04\n      add\n      tag_64\n      swap1\n      tag_65\n      jump\t// in\n    tag_64:\n      mload(0x40)\n      dup1\n      swap2\n      sub\n      swap1\n      revert\n    tag_63:\n        /* \"TaskRewardTreasure.sol\":2985:3008  Request storage request */\n      0x00\n        /* \"TaskRewardTreasure.sol\":3011:3019  requests */\n      0x01\n        /* \"TaskRewardTreasure.sol\":3011:3026  requests[index] */\n      0x00\n        /* \"TaskRewardTreasure.sol\":3020:3025  index */\n      dup4\n        /* \"TaskRewardTreasure.sol\":3011:3026  requests[index] */\n      dup2\n      mstore\n      0x20\n      add\n      swap1\n      dup2\n      mstore\n      0x20\n      add\n      0x00\n      keccak256\n        /* \"TaskRewardTreasure.sol\":2985:3026  Request storage request = requests[index] */\n      swap1\n      pop\n        /* \"TaskRewardTreasure.sol\":3087:3088  2 */\n      0x02\n        /* \"TaskRewardTreasure.sol\":3070:3084  approversCount */\n      sload(0x04)\n        /* \"TaskRewardTreasure.sol\":3070:3088  approversCount / 2 */\n      tag_67\n      swap2\n      swap1\n      tag_68\n      jump\t// in\n    tag_67:\n        /* \"TaskRewardTreasure.sol\":3045:3052  request */\n      dup2\n        /* \"TaskRewardTreasure.sol\":3045:3066  request.approvalCount */\n      0x03\n      add\n      sload\n        /* \"TaskRewardTreasure.sol\":3045:3089  request.approvalCount > (approversCount / 2) */\n      gt\n        /* \"TaskRewardTreasure.sol\":3037:3136  require(request.approvalCount > (approversCount / 2), \"Not enought approval to finish the request\") */\n      tag_69\n      jumpi\n      mload(0x40)\n      0x08c379a000000000000000000000000000000000000000000000000000000000\n      dup2\n      mstore\n      0x04\n      add\n      tag_70\n      swap1\n      tag_71\n      jump\t// in\n    tag_70:\n      mload(0x40)\n      dup1\n      swap2\n      sub\n      swap1\n      revert\n    tag_69:\n        /* \"TaskRewardTreasure.sol\":3155:3162  request */\n      dup1\n        /* \"TaskRewardTreasure.sol\":3155:3171  request.complete */\n      0x02\n      add\n      0x14\n      swap1\n      sload\n      swap1\n      0x0100\n      exp\n      swap1\n      div\n      0xff\n      and\n        /* \"TaskRewardTreasure.sol\":3154:3171  !request.complete */\n      iszero\n        /* \"TaskRewardTreasure.sol\":3146:3204  require(!request.complete, \"Request was already finished\") */\n      tag_72\n      jumpi\n      mload(0x40)\n      0x08c379a000000000000000000000000000000000000000000000000000000000\n      dup2\n      mstore\n      0x04\n      add\n      tag_73\n      swap1\n      tag_74\n      jump\t// in\n    tag_73:\n      mload(0x40)\n      dup1\n      swap2\n      sub\n      swap1\n      revert\n    tag_72:\n        /* \"TaskRewardTreasure.sol\":3216:3228  bool success */\n      0x00\n        /* \"TaskRewardTreasure.sol\":3242:3249  request */\n      dup2\n        /* \"TaskRewardTreasure.sol\":3242:3259  request.recipient */\n      0x02\n      add\n      0x00\n      swap1\n      sload\n      swap1\n      0x0100\n      exp\n      swap1\n      div\n      0xffffffffffffffffffffffffffffffffffffffff\n      and\n        /* \"TaskRewardTreasure.sol\":3234:3265  payable(request.recipient).call */\n      0xffffffffffffffffffffffffffffffffffffffff\n      and\n        /* \"TaskRewardTreasure.sol\":3273:3280  request */\n      dup3\n        /* \"TaskRewardTreasure.sol\":3273:3286  request.value */\n      0x01\n      add\n      sload\n        /* \"TaskRewardTreasure.sol\":3234:3291  payable(request.recipient).call{value: request.value}(\"\") */\n      mload(0x40)\n      tag_75\n      swap1\n      tag_76\n      jump\t// in\n    tag_75:\n      0x00\n      mload(0x40)\n      dup1\n      dup4\n      sub\n      dup2\n      dup6\n      dup8\n      gas\n      call\n      swap3\n      pop\n      pop\n      pop\n      returndatasize\n      dup1\n      0x00\n      dup2\n      eq\n      tag_79\n      jumpi\n      mload(0x40)\n      swap2\n      pop\n      and(add(returndatasize, 0x3f), not(0x1f))\n      dup3\n      add\n      0x40\n      mstore\n      returndatasize\n      dup3\n      mstore\n      returndatasize\n      0x00\n      0x20\n      dup5\n      add\n      returndatacopy\n      jump(tag_78)\n    tag_79:\n      0x60\n      swap2\n      pop\n    tag_78:\n      pop\n        /* \"TaskRewardTreasure.sol\":3215:3291  (bool success, ) = payable(request.recipient).call{value: request.value}(\"\") */\n      pop\n      swap1\n      pop\n        /* \"TaskRewardTreasure.sol\":3309:3316  success */\n      dup1\n        /* \"TaskRewardTreasure.sol\":3301:3337  require(success, \"Transfer failed.\") */\n      tag_80\n      jumpi\n      mload(0x40)\n      0x08c379a000000000000000000000000000000000000000000000000000000000\n      dup2\n      mstore\n      0x04\n      add\n      tag_81\n      swap1\n      tag_82\n      jump\t// in\n    tag_81:\n      mload(0x40)\n      dup1\n      swap2\n      sub\n      swap1\n      revert\n    tag_80:\n        /* \"TaskRewardTreasure.sol\":3366:3370  true */\n      0x01\n        /* \"TaskRewardTreasure.sol\":3347:3354  request */\n      dup3\n        /* \"TaskRewardTreasure.sol\":3347:3363  request.complete */\n      0x02\n      add\n      0x14\n        /* \"TaskRewardTreasure.sol\":3347:3370  request.complete = true */\n      0x0100\n      exp\n      dup2\n      sload\n      dup2\n      0xff\n      mul\n      not\n      and\n      swap1\n      dup4\n      iszero\n      iszero\n      mul\n      or\n      swap1\n      sstore\n      pop\n        /* \"TaskRewardTreasure.sol\":3422:3437  block.timestamp */\n      timestamp\n        /* \"TaskRewardTreasure.sol\":3415:3420  index */\n      dup4\n        /* \"TaskRewardTreasure.sol\":3403:3413  msg.sender */\n      caller\n        /* \"TaskRewardTreasure.sol\":3386:3438  RequestFinalized(msg.sender, index, block.timestamp) */\n      0xffffffffffffffffffffffffffffffffffffffff\n      and\n      0xf671d6cda6553dfaaf0258586d1d6fbdf92fb380a75b7c27dd07324ac9001b0d\n      mload(0x40)\n      mload(0x40)\n      dup1\n      swap2\n      sub\n      swap1\n      log4\n        /* \"TaskRewardTreasure.sol\":2975:3445  {... */\n      pop\n      pop\n        /* \"TaskRewardTreasure.sol\":2919:3445  function finalizeRequest(uint index) public approvereds {... */\n      pop\n      jump\t// out\n        /* \"TaskRewardTreasure.sol\":609:650  mapping(address => bool) public approvers */\n    tag_26:\n      mstore(0x20, 0x03)\n      dup1\n      0x00\n      mstore\n      keccak256(0x00, 0x40)\n      0x00\n      swap2\n      pop\n      sload\n      swap1\n      0x0100\n      exp\n      swap1\n      div\n      0xff\n      and\n      dup2\n      jump\t// out\n        /* \"TaskRewardTreasure.sol\":3684:3776  function getRequestsCount() public view returns (uint) {... */\n    tag_31:\n        /* \"TaskRewardTreasure.sol\":3733:3737  uint */\n      0x00\n        /* \"TaskRewardTreasure.sol\":3756:3769  requestsCount */\n      sload(0x02)\n        /* \"TaskRewardTreasure.sol\":3749:3769  return requestsCount */\n      swap1\n      pop\n        /* \"TaskRewardTreasure.sol\":3684:3776  function getRequestsCount() public view returns (uint) {... */\n      swap1\n      jump\t// out\n        /* \"TaskRewardTreasure.sol\":3455:3674  function getSummary() public view returns (... */\n    tag_35:\n        /* \"TaskRewardTreasure.sol\":3505:3509  uint */\n      0x00\n        /* \"TaskRewardTreasure.sol\":3511:3515  uint */\n      dup1\n        /* \"TaskRewardTreasure.sol\":3517:3521  uint */\n      0x00\n        /* \"TaskRewardTreasure.sol\":3523:3530  address */\n      dup1\n        /* \"TaskRewardTreasure.sol\":3568:3589  address(this).balance */\n      selfbalance\n        /* \"TaskRewardTreasure.sol\":3601:3614  requestsCount */\n      sload(0x02)\n        /* \"TaskRewardTreasure.sol\":3626:3640  approversCount */\n      sload(0x04)\n        /* \"TaskRewardTreasure.sol\":3652:3657  owner */\n      0x00\n      dup1\n      sload\n      swap1\n      0x0100\n      exp\n      swap1\n      div\n      0xffffffffffffffffffffffffffffffffffffffff\n      and\n        /* \"TaskRewardTreasure.sol\":3549:3667  return (... */\n      swap4\n      pop\n      swap4\n      pop\n      swap4\n      pop\n      swap4\n      pop\n        /* \"TaskRewardTreasure.sol\":3455:3674  function getSummary() public view returns (... */\n      swap1\n      swap2\n      swap3\n      swap4\n      jump\t// out\n        /* \"TaskRewardTreasure.sol\":1902:2093  function removeApprover(address _approver) public restricted {... */\n    tag_41:\n        /* \"TaskRewardTreasure.sol\":1328:1333  owner */\n      0x00\n      dup1\n      sload\n      swap1\n      0x0100\n      exp\n      swap1\n      div\n      0xffffffffffffffffffffffffffffffffffffffff\n      and\n        /* \"TaskRewardTreasure.sol\":1314:1333  msg.sender == owner */\n      0xffffffffffffffffffffffffffffffffffffffff\n      and\n        /* \"TaskRewardTreasure.sol\":1314:1324  msg.sender */\n      caller\n        /* \"TaskRewardTreasure.sol\":1314:1333  msg.sender == owner */\n      0xffffffffffffffffffffffffffffffffffffffff\n      and\n      eq\n        /* \"TaskRewardTreasure.sol\":1306:1367  require(msg.sender == owner, \"Only owner can add approvers!\") */\n      tag_86\n      jumpi\n      mload(0x40)\n      0x08c379a000000000000000000000000000000000000000000000000000000000\n      dup2\n      mstore\n      0x04\n      add\n      tag_87\n      swap1\n      tag_88\n      jump\t// in\n    tag_87:\n      mload(0x40)\n      dup1\n      swap2\n      sub\n      swap1\n      revert\n    tag_86:\n        /* \"TaskRewardTreasure.sol\":1996:2001  false */\n      0x00\n        /* \"TaskRewardTreasure.sol\":1973:1982  approvers */\n      0x03\n        /* \"TaskRewardTreasure.sol\":1973:1993  approvers[_approver] */\n      0x00\n        /* \"TaskRewardTreasure.sol\":1983:1992  _approver */\n      dup4\n        /* \"TaskRewardTreasure.sol\":1973:1993  approvers[_approver] */\n      0xffffffffffffffffffffffffffffffffffffffff\n      and\n      0xffffffffffffffffffffffffffffffffffffffff\n      and\n      dup2\n      mstore\n      0x20\n      add\n      swap1\n      dup2\n      mstore\n      0x20\n      add\n      0x00\n      keccak256\n      0x00\n        /* \"TaskRewardTreasure.sol\":1973:2001  approvers[_approver] = false */\n      0x0100\n      exp\n      dup2\n      sload\n      dup2\n      0xff\n      mul\n      not\n      and\n      swap1\n      dup4\n      iszero\n      iszero\n      mul\n      or\n      swap1\n      sstore\n      pop\n        /* \"TaskRewardTreasure.sol\":2011:2025  approversCount */\n      0x04\n      0x00\n        /* \"TaskRewardTreasure.sol\":2011:2027  approversCount-- */\n      dup2\n      sload\n      dup1\n      swap3\n      swap2\n      swap1\n      tag_90\n      swap1\n      tag_91\n      jump\t// in\n    tag_90:\n      swap2\n      swap1\n      pop\n      sstore\n      pop\n        /* \"TaskRewardTreasure.sol\":2070:2085  block.timestamp */\n      timestamp\n        /* \"TaskRewardTreasure.sol\":2059:2068  _approver */\n      dup2\n        /* \"TaskRewardTreasure.sol\":2043:2086  DeleteApprovers(_approver, block.timestamp) */\n      0xffffffffffffffffffffffffffffffffffffffff\n      and\n      0xbf3ba3d7191a13c4127d1868d4d7e27913f22e462c5bf0fa544b6532b3c9f077\n      mload(0x40)\n      mload(0x40)\n      dup1\n      swap2\n      sub\n      swap1\n      log3\n        /* \"TaskRewardTreasure.sol\":1902:2093  function removeApprover(address _approver) public restricted {... */\n      pop\n      jump\t// out\n        /* \"TaskRewardTreasure.sol\":530:571  mapping (uint => Request) public requests */\n    tag_45:\n      mstore(0x20, 0x01)\n      dup1\n      0x00\n      mstore\n      keccak256(0x00, 0x40)\n      0x00\n      swap2\n      pop\n      swap1\n      pop\n      dup1\n      0x00\n      add\n      dup1\n      sload\n      tag_92\n      swap1\n      tag_93\n      jump\t// in\n    tag_92:\n      dup1\n      0x1f\n      add\n      0x20\n      dup1\n      swap2\n      div\n      mul\n      0x20\n      add\n      mload(0x40)\n      swap1\n      dup2\n      add\n      0x40\n      mstore\n      dup1\n      swap3\n      swap2\n      swap1\n      dup2\n      dup2\n      mstore\n      0x20\n      add\n      dup3\n      dup1\n      sload\n      tag_94\n      swap1\n      tag_93\n      jump\t// in\n    tag_94:\n      dup1\n      iszero\n      tag_95\n      jumpi\n      dup1\n      0x1f\n      lt\n      tag_96\n      jumpi\n      0x0100\n      dup1\n      dup4\n      sload\n      div\n      mul\n      dup4\n      mstore\n      swap2\n      0x20\n      add\n      swap2\n      jump(tag_95)\n    tag_96:\n      dup3\n      add\n      swap2\n      swap1\n      0x00\n      mstore\n      keccak256(0x00, 0x20)\n      swap1\n    tag_97:\n      dup2\n      sload\n      dup2\n      mstore\n      swap1\n      0x01\n      add\n      swap1\n      0x20\n      add\n      dup1\n      dup4\n      gt\n      tag_97\n      jumpi\n      dup3\n      swap1\n      sub\n      0x1f\n      and\n      dup3\n      add\n      swap2\n    tag_95:\n      pop\n      pop\n      pop\n      pop\n      pop\n      swap1\n      dup1\n      0x01\n      add\n      sload\n      swap1\n      dup1\n      0x02\n      add\n      0x00\n      swap1\n      sload\n      swap1\n      0x0100\n      exp\n      swap1\n      div\n      0xffffffffffffffffffffffffffffffffffffffff\n      and\n      swap1\n      dup1\n      0x02\n      add\n      0x14\n      swap1\n      sload\n      swap1\n      0x0100\n      exp\n      swap1\n      div\n      0xff\n      and\n      swap1\n      dup1\n      0x03\n      add\n      sload\n      swap1\n      pop\n      dup6\n      jump\t// out\n        /* \"TaskRewardTreasure.sol\":2099:2487  function createRequest(string memory description, uint value, address recipient) public approvereds {... */\n    tag_52:\n        /* \"TaskRewardTreasure.sol\":1447:1452  owner */\n      0x00\n      dup1\n      sload\n      swap1\n      0x0100\n      exp\n      swap1\n      div\n      0xffffffffffffffffffffffffffffffffffffffff\n      and\n        /* \"TaskRewardTreasure.sol\":1433:1452  msg.sender == owner */\n      0xffffffffffffffffffffffffffffffffffffffff\n      and\n        /* \"TaskRewardTreasure.sol\":1433:1443  msg.sender */\n      caller\n        /* \"TaskRewardTreasure.sol\":1433:1452  msg.sender == owner */\n      0xffffffffffffffffffffffffffffffffffffffff\n      and\n      eq\n        /* \"TaskRewardTreasure.sol\":1432:1480  (msg.sender == owner) || (approvers[msg.sender]) */\n      dup1\n      tag_99\n      jumpi\n      pop\n        /* \"TaskRewardTreasure.sol\":1458:1467  approvers */\n      0x03\n        /* \"TaskRewardTreasure.sol\":1458:1479  approvers[msg.sender] */\n      0x00\n        /* \"TaskRewardTreasure.sol\":1468:1478  msg.sender */\n      caller\n        /* \"TaskRewardTreasure.sol\":1458:1479  approvers[msg.sender] */\n      0xffffffffffffffffffffffffffffffffffffffff\n      and\n      0xffffffffffffffffffffffffffffffffffffffff\n      and\n      dup2\n      mstore\n      0x20\n      add\n      swap1\n      dup2\n      mstore\n      0x20\n      add\n      0x00\n      keccak256\n      0x00\n      swap1\n      sload\n      swap1\n      0x0100\n      exp\n      swap1\n      div\n      0xff\n      and\n        /* \"TaskRewardTreasure.sol\":1432:1480  (msg.sender == owner) || (approvers[msg.sender]) */\n    tag_99:\n        /* \"TaskRewardTreasure.sol\":1424:1531  require((msg.sender == owner) || (approvers[msg.sender]), \"Only owner and approvers can request withdraw!\") */\n      tag_100\n      jumpi\n      mload(0x40)\n      0x08c379a000000000000000000000000000000000000000000000000000000000\n      dup2\n      mstore\n      0x04\n      add\n      tag_101\n      swap1\n      tag_65\n      jump\t// in\n    tag_101:\n      mload(0x40)\n      dup1\n      swap2\n      sub\n      swap1\n      revert\n    tag_100:\n        /* \"TaskRewardTreasure.sol\":2209:2226  Request storage r */\n      0x00\n        /* \"TaskRewardTreasure.sol\":2229:2237  requests */\n      0x01\n        /* \"TaskRewardTreasure.sol\":2229:2254  requests[requestsCount++] */\n      0x00\n        /* \"TaskRewardTreasure.sol\":2238:2251  requestsCount */\n      0x02\n      0x00\n        /* \"TaskRewardTreasure.sol\":2238:2253  requestsCount++ */\n      dup2\n      sload\n      dup1\n      swap3\n      swap2\n      swap1\n      tag_103\n      swap1\n      tag_104\n      jump\t// in\n    tag_103:\n      swap2\n      swap1\n      pop\n      sstore\n        /* \"TaskRewardTreasure.sol\":2229:2254  requests[requestsCount++] */\n      dup2\n      mstore\n      0x20\n      add\n      swap1\n      dup2\n      mstore\n      0x20\n      add\n      0x00\n      keccak256\n        /* \"TaskRewardTreasure.sol\":2209:2254  Request storage r = requests[requestsCount++] */\n      swap1\n      pop\n        /* \"TaskRewardTreasure.sol\":2280:2291  description */\n      dup4\n        /* \"TaskRewardTreasure.sol\":2264:2265  r */\n      dup2\n        /* \"TaskRewardTreasure.sol\":2264:2277  r.description */\n      0x00\n      add\n        /* \"TaskRewardTreasure.sol\":2264:2291  r.description = description */\n      swap1\n      dup1\n      mload\n      swap1\n      0x20\n      add\n      swap1\n      tag_105\n      swap3\n      swap2\n      swap1\n      tag_106\n      jump\t// in\n    tag_105:\n      pop\n        /* \"TaskRewardTreasure.sol\":2311:2316  value */\n      dup3\n        /* \"TaskRewardTreasure.sol\":2301:2302  r */\n      dup2\n        /* \"TaskRewardTreasure.sol\":2301:2308  r.value */\n      0x01\n      add\n        /* \"TaskRewardTreasure.sol\":2301:2316  r.value = value */\n      dup2\n      swap1\n      sstore\n      pop\n        /* \"TaskRewardTreasure.sol\":2340:2349  recipient */\n      dup2\n        /* \"TaskRewardTreasure.sol\":2326:2327  r */\n      dup2\n        /* \"TaskRewardTreasure.sol\":2326:2337  r.recipient */\n      0x02\n      add\n      0x00\n        /* \"TaskRewardTreasure.sol\":2326:2349  r.recipient = recipient */\n      0x0100\n      exp\n      dup2\n      sload\n      dup2\n      0xffffffffffffffffffffffffffffffffffffffff\n      mul\n      not\n      and\n      swap1\n      dup4\n      0xffffffffffffffffffffffffffffffffffffffff\n      and\n      mul\n      or\n      swap1\n      sstore\n      pop\n        /* \"TaskRewardTreasure.sol\":2372:2377  false */\n      0x00\n        /* \"TaskRewardTreasure.sol\":2359:2360  r */\n      dup2\n        /* \"TaskRewardTreasure.sol\":2359:2369  r.complete */\n      0x02\n      add\n      0x14\n        /* \"TaskRewardTreasure.sol\":2359:2377  r.complete = false */\n      0x0100\n      exp\n      dup2\n      sload\n      dup2\n      0xff\n      mul\n      not\n      and\n      swap1\n      dup4\n      iszero\n      iszero\n      mul\n      or\n      swap1\n      sstore\n      pop\n        /* \"TaskRewardTreasure.sol\":2405:2406  0 */\n      0x00\n        /* \"TaskRewardTreasure.sol\":2387:2388  r */\n      dup2\n        /* \"TaskRewardTreasure.sol\":2387:2402  r.approvalCount */\n      0x03\n      add\n        /* \"TaskRewardTreasure.sol\":2387:2406  r.approvalCount = 0 */\n      dup2\n      swap1\n      sstore\n      pop\n        /* \"TaskRewardTreasure.sol\":2464:2479  block.timestamp */\n      timestamp\n        /* \"TaskRewardTreasure.sol\":2449:2462  requestsCount */\n      sload(0x02)\n        /* \"TaskRewardTreasure.sol\":2437:2447  msg.sender */\n      caller\n        /* \"TaskRewardTreasure.sol\":2422:2480  RequestCreated(msg.sender, requestsCount, block.timestamp) */\n      0xffffffffffffffffffffffffffffffffffffffff\n      and\n      0x7920722cc1545f7b96cbc17d5dad10302e32f646bdb446d0a56fcce0438dd064\n      mload(0x40)\n      mload(0x40)\n      dup1\n      swap2\n      sub\n      swap1\n      log4\n        /* \"TaskRewardTreasure.sol\":2199:2487  {... */\n      pop\n        /* \"TaskRewardTreasure.sol\":2099:2487  function createRequest(string memory description, uint value, address recipient) public approvereds {... */\n      pop\n      pop\n      pop\n      jump\t// out\n        /* \"TaskRewardTreasure.sol\":1712:1896  function addApprover(address _approver) public restricted {... */\n    tag_56:\n        /* \"TaskRewardTreasure.sol\":1328:1333  owner */\n      0x00\n      dup1\n      sload\n      swap1\n      0x0100\n      exp\n      swap1\n      div\n      0xffffffffffffffffffffffffffffffffffffffff\n      and\n        /* \"TaskRewardTreasure.sol\":1314:1333  msg.sender == owner */\n      0xffffffffffffffffffffffffffffffffffffffff\n      and\n        /* \"TaskRewardTreasure.sol\":1314:1324  msg.sender */\n      caller\n        /* \"TaskRewardTreasure.sol\":1314:1333  msg.sender == owner */\n      0xffffffffffffffffffffffffffffffffffffffff\n      and\n      eq\n        /* \"TaskRewardTreasure.sol\":1306:1367  require(msg.sender == owner, \"Only owner can add approvers!\") */\n      tag_108\n      jumpi\n      mload(0x40)\n      0x08c379a000000000000000000000000000000000000000000000000000000000\n      dup2\n      mstore\n      0x04\n      add\n      tag_109\n      swap1\n      tag_88\n      jump\t// in\n    tag_109:\n      mload(0x40)\n      dup1\n      swap2\n      sub\n      swap1\n      revert\n    tag_108:\n        /* \"TaskRewardTreasure.sol\":1803:1807  true */\n      0x01\n        /* \"TaskRewardTreasure.sol\":1780:1789  approvers */\n      0x03\n        /* \"TaskRewardTreasure.sol\":1780:1800  approvers[_approver] */\n      0x00\n        /* \"TaskRewardTreasure.sol\":1790:1799  _approver */\n      dup4\n        /* \"TaskRewardTreasure.sol\":1780:1800  approvers[_approver] */\n      0xffffffffffffffffffffffffffffffffffffffff\n      and\n      0xffffffffffffffffffffffffffffffffffffffff\n      and\n      dup2\n      mstore\n      0x20\n      add\n      swap1\n      dup2\n      mstore\n      0x20\n      add\n      0x00\n      keccak256\n      0x00\n        /* \"TaskRewardTreasure.sol\":1780:1807  approvers[_approver] = true */\n      0x0100\n      exp\n      dup2\n      sload\n      dup2\n      0xff\n      mul\n      not\n      and\n      swap1\n      dup4\n      iszero\n      iszero\n      mul\n      or\n      swap1\n      sstore\n      pop\n        /* \"TaskRewardTreasure.sol\":1817:1831  approversCount */\n      0x04\n      0x00\n        /* \"TaskRewardTreasure.sol\":1817:1833  approversCount++ */\n      dup2\n      sload\n      dup1\n      swap3\n      swap2\n      swap1\n      tag_111\n      swap1\n      tag_104\n      jump\t// in\n    tag_111:\n      swap2\n      swap1\n      pop\n      sstore\n      pop\n        /* \"TaskRewardTreasure.sol\":1873:1888  block.timestamp */\n      timestamp\n        /* \"TaskRewardTreasure.sol\":1862:1871  _approver */\n      dup2\n        /* \"TaskRewardTreasure.sol\":1849:1889  AddApprovers(_approver, block.timestamp) */\n      0xffffffffffffffffffffffffffffffffffffffff\n      and\n      0xfbbd3197d26d1b4dadcb997234c5f493bf7ff894e92965a7f3dd47551d04f5c9\n      mload(0x40)\n      mload(0x40)\n      dup1\n      swap2\n      sub\n      swap1\n      log3\n        /* \"TaskRewardTreasure.sol\":1712:1896  function addApprover(address _approver) public restricted {... */\n      pop\n      jump\t// out\n        /* \"TaskRewardTreasure.sol\":2493:2913  function approveRequest(uint index) public {... */\n    tag_60:\n        /* \"TaskRewardTreasure.sol\":2546:2569  Request storage request */\n      0x00\n        /* \"TaskRewardTreasure.sol\":2572:2580  requests */\n      0x01\n        /* \"TaskRewardTreasure.sol\":2572:2587  requests[index] */\n      0x00\n        /* \"TaskRewardTreasure.sol\":2581:2586  index */\n      dup4\n        /* \"TaskRewardTreasure.sol\":2572:2587  requests[index] */\n      dup2\n      mstore\n      0x20\n      add\n      swap1\n      dup2\n      mstore\n      0x20\n      add\n      0x00\n      keccak256\n        /* \"TaskRewardTreasure.sol\":2546:2587  Request storage request = requests[index] */\n      swap1\n      pop\n        /* \"TaskRewardTreasure.sol\":2606:2615  approvers */\n      0x03\n        /* \"TaskRewardTreasure.sol\":2606:2627  approvers[msg.sender] */\n      0x00\n        /* \"TaskRewardTreasure.sol\":2616:2626  msg.sender */\n      caller\n        /* \"TaskRewardTreasure.sol\":2606:2627  approvers[msg.sender] */\n      0xffffffffffffffffffffffffffffffffffffffff\n      and\n      0xffffffffffffffffffffffffffffffffffffffff\n      and\n      dup2\n      mstore\n      0x20\n      add\n      swap1\n      dup2\n      mstore\n      0x20\n      add\n      0x00\n      keccak256\n      0x00\n      swap1\n      sload\n      swap1\n      0x0100\n      exp\n      swap1\n      div\n      0xff\n      and\n        /* \"TaskRewardTreasure.sol\":2598:2670  require(approvers[msg.sender], \"Only approvers can approve the request\") */\n      tag_113\n      jumpi\n      mload(0x40)\n      0x08c379a000000000000000000000000000000000000000000000000000000000\n      dup2\n      mstore\n      0x04\n      add\n      tag_114\n      swap1\n      tag_115\n      jump\t// in\n    tag_114:\n      mload(0x40)\n      dup1\n      swap2\n      sub\n      swap1\n      revert\n    tag_113:\n        /* \"TaskRewardTreasure.sol\":2689:2696  request */\n      dup1\n        /* \"TaskRewardTreasure.sol\":2689:2706  request.approvals */\n      0x04\n      add\n        /* \"TaskRewardTreasure.sol\":2689:2718  request.approvals[msg.sender] */\n      0x00\n        /* \"TaskRewardTreasure.sol\":2707:2717  msg.sender */\n      caller\n        /* \"TaskRewardTreasure.sol\":2689:2718  request.approvals[msg.sender] */\n      0xffffffffffffffffffffffffffffffffffffffff\n      and\n      0xffffffffffffffffffffffffffffffffffffffff\n      and\n      dup2\n      mstore\n      0x20\n      add\n      swap1\n      dup2\n      mstore\n      0x20\n      add\n      0x00\n      keccak256\n      0x00\n      swap1\n      sload\n      swap1\n      0x0100\n      exp\n      swap1\n      div\n      0xff\n      and\n        /* \"TaskRewardTreasure.sol\":2688:2718  !request.approvals[msg.sender] */\n      iszero\n        /* \"TaskRewardTreasure.sol\":2680:2759  require(!request.approvals[msg.sender], \"Address already approved the request\") */\n      tag_116\n      jumpi\n      mload(0x40)\n      0x08c379a000000000000000000000000000000000000000000000000000000000\n      dup2\n      mstore\n      0x04\n      add\n      tag_117\n      swap1\n      tag_118\n      jump\t// in\n    tag_117:\n      mload(0x40)\n      dup1\n      swap2\n      sub\n      swap1\n      revert\n    tag_116:\n        /* \"TaskRewardTreasure.sol\":2802:2806  true */\n      0x01\n        /* \"TaskRewardTreasure.sol\":2770:2777  request */\n      dup2\n        /* \"TaskRewardTreasure.sol\":2770:2787  request.approvals */\n      0x04\n      add\n        /* \"TaskRewardTreasure.sol\":2770:2799  request.approvals[msg.sender] */\n      0x00\n        /* \"TaskRewardTreasure.sol\":2788:2798  msg.sender */\n      caller\n        /* \"TaskRewardTreasure.sol\":2770:2799  request.approvals[msg.sender] */\n      0xffffffffffffffffffffffffffffffffffffffff\n      and\n      0xffffffffffffffffffffffffffffffffffffffff\n      and\n      dup2\n      mstore\n      0x20\n      add\n      swap1\n      dup2\n      mstore\n      0x20\n      add\n      0x00\n      keccak256\n      0x00\n        /* \"TaskRewardTreasure.sol\":2770:2806  request.approvals[msg.sender] = true */\n      0x0100\n      exp\n      dup2\n      sload\n      dup2\n      0xff\n      mul\n      not\n      and\n      swap1\n      dup4\n      iszero\n      iszero\n      mul\n      or\n      swap1\n      sstore\n      pop\n        /* \"TaskRewardTreasure.sol\":2816:2823  request */\n      dup1\n        /* \"TaskRewardTreasure.sol\":2816:2837  request.approvalCount */\n      0x03\n      add\n      0x00\n        /* \"TaskRewardTreasure.sol\":2816:2839  request.approvalCount++ */\n      dup2\n      sload\n      dup1\n      swap3\n      swap2\n      swap1\n      tag_119\n      swap1\n      tag_104\n      jump\t// in\n    tag_119:\n      swap2\n      swap1\n      pop\n      sstore\n      pop\n        /* \"TaskRewardTreasure.sol\":2890:2905  block.timestamp */\n      timestamp\n        /* \"TaskRewardTreasure.sol\":2883:2888  index */\n      dup3\n        /* \"TaskRewardTreasure.sol\":2871:2881  msg.sender */\n      caller\n        /* \"TaskRewardTreasure.sol\":2855:2906  RequestApproved(msg.sender, index, block.timestamp) */\n      0xffffffffffffffffffffffffffffffffffffffff\n      and\n      0x72eac37cab79fc1aa17a72d288b91435145fd43511852c3780092d368f07181d\n      mload(0x40)\n      mload(0x40)\n      dup1\n      swap2\n      sub\n      swap1\n      log4\n        /* \"TaskRewardTreasure.sol\":2536:2913  {... */\n      pop\n        /* \"TaskRewardTreasure.sol\":2493:2913  function approveRequest(uint index) public {... */\n      pop\n      jump\t// out\n    tag_106:\n      dup3\n      dup1\n      sload\n      tag_120\n      swap1\n      tag_93\n      jump\t// in\n    tag_120:\n      swap1\n      0x00\n      mstore\n      keccak256(0x00, 0x20)\n      swap1\n      0x1f\n      add\n      0x20\n      swap1\n      div\n      dup2\n      add\n      swap3\n      dup3\n      tag_122\n      jumpi\n      0x00\n      dup6\n      sstore\n      jump(tag_121)\n    tag_122:\n      dup3\n      0x1f\n      lt\n      tag_123\n      jumpi\n      dup1\n      mload\n      not(0xff)\n      and\n      dup4\n      dup1\n      add\n      or\n      dup6\n      sstore\n      jump(tag_121)\n    tag_123:\n      dup3\n      dup1\n      add\n      0x01\n      add\n      dup6\n      sstore\n      dup3\n      iszero\n      tag_121\n      jumpi\n      swap2\n      dup3\n      add\n    tag_124:\n      dup3\n      dup2\n      gt\n      iszero\n      tag_125\n      jumpi\n      dup3\n      mload\n      dup3\n      sstore\n      swap2\n      0x20\n      add\n      swap2\n      swap1\n      0x01\n      add\n      swap1\n      jump(tag_124)\n    tag_125:\n    tag_121:\n      pop\n      swap1\n      pop\n      tag_126\n      swap2\n      swap1\n      tag_127\n      jump\t// in\n    tag_126:\n      pop\n      swap1\n      jump\t// out\n    tag_127:\n    tag_128:\n      dup1\n      dup3\n      gt\n      iszero\n      tag_129\n      jumpi\n      0x00\n      dup2\n      0x00\n      swap1\n      sstore\n      pop\n      0x01\n      add\n      jump(tag_128)\n    tag_129:\n      pop\n      swap1\n      jump\t// out\n        /* \"#utility.yul\":7:84   */\n    tag_130:\n        /* \"#utility.yul\":44:51   */\n      0x00\n        /* \"#utility.yul\":73:78   */\n      dup2\n        /* \"#utility.yul\":62:78   */\n      swap1\n      pop\n        /* \"#utility.yul\":7:84   */\n      swap2\n      swap1\n      pop\n      jump\t// out\n        /* \"#utility.yul\":90:208   */\n    tag_131:\n        /* \"#utility.yul\":177:201   */\n      tag_181\n        /* \"#utility.yul\":195:200   */\n      dup2\n        /* \"#utility.yul\":177:201   */\n      tag_130\n      jump\t// in\n    tag_181:\n        /* \"#utility.yul\":172:175   */\n      dup3\n        /* \"#utility.yul\":165:202   */\n      mstore\n        /* \"#utility.yul\":90:208   */\n      pop\n      pop\n      jump\t// out\n        /* \"#utility.yul\":214:436   */\n    tag_16:\n        /* \"#utility.yul\":307:311   */\n      0x00\n        /* \"#utility.yul\":345:347   */\n      0x20\n        /* \"#utility.yul\":334:343   */\n      dup3\n        /* \"#utility.yul\":330:348   */\n      add\n        /* \"#utility.yul\":322:348   */\n      swap1\n      pop\n        /* \"#utility.yul\":358:429   */\n      tag_183\n        /* \"#utility.yul\":426:427   */\n      0x00\n        /* \"#utility.yul\":415:424   */\n      dup4\n        /* \"#utility.yul\":411:428   */\n      add\n        /* \"#utility.yul\":402:408   */\n      dup5\n        /* \"#utility.yul\":358:429   */\n      tag_131\n      jump\t// in\n    tag_183:\n        /* \"#utility.yul\":214:436   */\n      swap3\n      swap2\n      pop\n      pop\n      jump\t// out\n        /* \"#utility.yul\":442:517   */\n    tag_132:\n        /* \"#utility.yul\":475:481   */\n      0x00\n        /* \"#utility.yul\":508:510   */\n      0x40\n        /* \"#utility.yul\":502:511   */\n      mload\n        /* \"#utility.yul\":492:511   */\n      swap1\n      pop\n        /* \"#utility.yul\":442:517   */\n      swap1\n      jump\t// out\n        /* \"#utility.yul\":523:640   */\n    tag_133:\n        /* \"#utility.yul\":632:633   */\n      0x00\n        /* \"#utility.yul\":629:630   */\n      dup1\n        /* \"#utility.yul\":622:634   */\n      revert\n        /* \"#utility.yul\":646:763   */\n    tag_134:\n        /* \"#utility.yul\":755:756   */\n      0x00\n        /* \"#utility.yul\":752:753   */\n      dup1\n        /* \"#utility.yul\":745:757   */\n      revert\n        /* \"#utility.yul\":769:891   */\n    tag_135:\n        /* \"#utility.yul\":842:866   */\n      tag_188\n        /* \"#utility.yul\":860:865   */\n      dup2\n        /* \"#utility.yul\":842:866   */\n      tag_130\n      jump\t// in\n    tag_188:\n        /* \"#utility.yul\":835:840   */\n      dup2\n        /* \"#utility.yul\":832:867   */\n      eq\n        /* \"#utility.yul\":822:885   */\n      tag_189\n      jumpi\n        /* \"#utility.yul\":881:882   */\n      0x00\n        /* \"#utility.yul\":878:879   */\n      dup1\n        /* \"#utility.yul\":871:883   */\n      revert\n        /* \"#utility.yul\":822:885   */\n    tag_189:\n        /* \"#utility.yul\":769:891   */\n      pop\n      jump\t// out\n        /* \"#utility.yul\":897:1036   */\n    tag_136:\n        /* \"#utility.yul\":943:948   */\n      0x00\n        /* \"#utility.yul\":981:987   */\n      dup2\n        /* \"#utility.yul\":968:988   */\n      calldataload\n        /* \"#utility.yul\":959:988   */\n      swap1\n      pop\n        /* \"#utility.yul\":997:1030   */\n      tag_191\n        /* \"#utility.yul\":1024:1029   */\n      dup2\n        /* \"#utility.yul\":997:1030   */\n      tag_135\n      jump\t// in\n    tag_191:\n        /* \"#utility.yul\":897:1036   */\n      swap3\n      swap2\n      pop\n      pop\n      jump\t// out\n        /* \"#utility.yul\":1042:1371   */\n    tag_20:\n        /* \"#utility.yul\":1101:1107   */\n      0x00\n        /* \"#utility.yul\":1150:1152   */\n      0x20\n        /* \"#utility.yul\":1138:1147   */\n      dup3\n        /* \"#utility.yul\":1129:1136   */\n      dup5\n        /* \"#utility.yul\":1125:1148   */\n      sub\n        /* \"#utility.yul\":1121:1153   */\n      slt\n        /* \"#utility.yul\":1118:1237   */\n      iszero\n      tag_193\n      jumpi\n        /* \"#utility.yul\":1156:1235   */\n      tag_194\n      tag_133\n      jump\t// in\n    tag_194:\n        /* \"#utility.yul\":1118:1237   */\n    tag_193:\n        /* \"#utility.yul\":1276:1277   */\n      0x00\n        /* \"#utility.yul\":1301:1354   */\n      tag_195\n        /* \"#utility.yul\":1346:1353   */\n      dup5\n        /* \"#utility.yul\":1337:1343   */\n      dup3\n        /* \"#utility.yul\":1326:1335   */\n      dup6\n        /* \"#utility.yul\":1322:1344   */\n      add\n        /* \"#utility.yul\":1301:1354   */\n      tag_136\n      jump\t// in\n    tag_195:\n        /* \"#utility.yul\":1291:1354   */\n      swap2\n      pop\n        /* \"#utility.yul\":1247:1364   */\n      pop\n        /* \"#utility.yul\":1042:1371   */\n      swap3\n      swap2\n      pop\n      pop\n      jump\t// out\n        /* \"#utility.yul\":1377:1503   */\n    tag_137:\n        /* \"#utility.yul\":1414:1421   */\n      0x00\n        /* \"#utility.yul\":1454:1496   */\n      0xffffffffffffffffffffffffffffffffffffffff\n        /* \"#utility.yul\":1447:1452   */\n      dup3\n        /* \"#utility.yul\":1443:1497   */\n      and\n        /* \"#utility.yul\":1432:1497   */\n      swap1\n      pop\n        /* \"#utility.yul\":1377:1503   */\n      swap2\n      swap1\n      pop\n      jump\t// out\n        /* \"#utility.yul\":1509:1605   */\n    tag_138:\n        /* \"#utility.yul\":1546:1553   */\n      0x00\n        /* \"#utility.yul\":1575:1599   */\n      tag_198\n        /* \"#utility.yul\":1593:1598   */\n      dup3\n        /* \"#utility.yul\":1575:1599   */\n      tag_137\n      jump\t// in\n    tag_198:\n        /* \"#utility.yul\":1564:1599   */\n      swap1\n      pop\n        /* \"#utility.yul\":1509:1605   */\n      swap2\n      swap1\n      pop\n      jump\t// out\n        /* \"#utility.yul\":1611:1733   */\n    tag_139:\n        /* \"#utility.yul\":1684:1708   */\n      tag_200\n        /* \"#utility.yul\":1702:1707   */\n      dup2\n        /* \"#utility.yul\":1684:1708   */\n      tag_138\n      jump\t// in\n    tag_200:\n        /* \"#utility.yul\":1677:1682   */\n      dup2\n        /* \"#utility.yul\":1674:1709   */\n      eq\n        /* \"#utility.yul\":1664:1727   */\n      tag_201\n      jumpi\n        /* \"#utility.yul\":1723:1724   */\n      0x00\n        /* \"#utility.yul\":1720:1721   */\n      dup1\n        /* \"#utility.yul\":1713:1725   */\n      revert\n        /* \"#utility.yul\":1664:1727   */\n    tag_201:\n        /* \"#utility.yul\":1611:1733   */\n      pop\n      jump\t// out\n        /* \"#utility.yul\":1739:1878   */\n    tag_140:\n        /* \"#utility.yul\":1785:1790   */\n      0x00\n        /* \"#utility.yul\":1823:1829   */\n      dup2\n        /* \"#utility.yul\":1810:1830   */\n      calldataload\n        /* \"#utility.yul\":1801:1830   */\n      swap1\n      pop\n        /* \"#utility.yul\":1839:1872   */\n      tag_203\n        /* \"#utility.yul\":1866:1871   */\n      dup2\n        /* \"#utility.yul\":1839:1872   */\n      tag_139\n      jump\t// in\n    tag_203:\n        /* \"#utility.yul\":1739:1878   */\n      swap3\n      swap2\n      pop\n      pop\n      jump\t// out\n        /* \"#utility.yul\":1884:2213   */\n    tag_25:\n        /* \"#utility.yul\":1943:1949   */\n      0x00\n        /* \"#utility.yul\":1992:1994   */\n      0x20\n        /* \"#utility.yul\":1980:1989   */\n      dup3\n        /* \"#utility.yul\":1971:1978   */\n      dup5\n        /* \"#utility.yul\":1967:1990   */\n      sub\n        /* \"#utility.yul\":1963:1995   */\n      slt\n        /* \"#utility.yul\":1960:2079   */\n      iszero\n      tag_205\n      jumpi\n        /* \"#utility.yul\":1998:2077   */\n      tag_206\n      tag_133\n      jump\t// in\n    tag_206:\n        /* \"#utility.yul\":1960:2079   */\n    tag_205:\n        /* \"#utility.yul\":2118:2119   */\n      0x00\n        /* \"#utility.yul\":2143:2196   */\n      tag_207\n        /* \"#utility.yul\":2188:2195   */\n      dup5\n        /* \"#utility.yul\":2179:2185   */\n      dup3\n        /* \"#utility.yul\":2168:2177   */\n      dup6\n        /* \"#utility.yul\":2164:2186   */\n      add\n        /* \"#utility.yul\":2143:2196   */\n      tag_140\n      jump\t// in\n    tag_207:\n        /* \"#utility.yul\":2133:2196   */\n      swap2\n      pop\n        /* \"#utility.yul\":2089:2206   */\n      pop\n        /* \"#utility.yul\":1884:2213   */\n      swap3\n      swap2\n      pop\n      pop\n      jump\t// out\n        /* \"#utility.yul\":2219:2309   */\n    tag_141:\n        /* \"#utility.yul\":2253:2260   */\n      0x00\n        /* \"#utility.yul\":2296:2301   */\n      dup2\n        /* \"#utility.yul\":2289:2302   */\n      iszero\n        /* \"#utility.yul\":2282:2303   */\n      iszero\n        /* \"#utility.yul\":2271:2303   */\n      swap1\n      pop\n        /* \"#utility.yul\":2219:2309   */\n      swap2\n      swap1\n      pop\n      jump\t// out\n        /* \"#utility.yul\":2315:2424   */\n    tag_142:\n        /* \"#utility.yul\":2396:2417   */\n      tag_210\n        /* \"#utility.yul\":2411:2416   */\n      dup2\n        /* \"#utility.yul\":2396:2417   */\n      tag_141\n      jump\t// in\n    tag_210:\n        /* \"#utility.yul\":2391:2394   */\n      dup3\n        /* \"#utility.yul\":2384:2418   */\n      mstore\n        /* \"#utility.yul\":2315:2424   */\n      pop\n      pop\n      jump\t// out\n        /* \"#utility.yul\":2430:2640   */\n    tag_28:\n        /* \"#utility.yul\":2517:2521   */\n      0x00\n        /* \"#utility.yul\":2555:2557   */\n      0x20\n        /* \"#utility.yul\":2544:2553   */\n      dup3\n        /* \"#utility.yul\":2540:2558   */\n      add\n        /* \"#utility.yul\":2532:2558   */\n      swap1\n      pop\n        /* \"#utility.yul\":2568:2633   */\n      tag_212\n        /* \"#utility.yul\":2630:2631   */\n      0x00\n        /* \"#utility.yul\":2619:2628   */\n      dup4\n        /* \"#utility.yul\":2615:2632   */\n      add\n        /* \"#utility.yul\":2606:2612   */\n      dup5\n        /* \"#utility.yul\":2568:2633   */\n      tag_142\n      jump\t// in\n    tag_212:\n        /* \"#utility.yul\":2430:2640   */\n      swap3\n      swap2\n      pop\n      pop\n      jump\t// out\n        /* \"#utility.yul\":2646:2764   */\n    tag_143:\n        /* \"#utility.yul\":2733:2757   */\n      tag_214\n        /* \"#utility.yul\":2751:2756   */\n      dup2\n        /* \"#utility.yul\":2733:2757   */\n      tag_138\n      jump\t// in\n    tag_214:\n        /* \"#utility.yul\":2728:2731   */\n      dup3\n        /* \"#utility.yul\":2721:2758   */\n      mstore\n        /* \"#utility.yul\":2646:2764   */\n      pop\n      pop\n      jump\t// out\n        /* \"#utility.yul\":2770:3323   */\n    tag_37:\n        /* \"#utility.yul\":2947:2951   */\n      0x00\n        /* \"#utility.yul\":2985:2988   */\n      0x80\n        /* \"#utility.yul\":2974:2983   */\n      dup3\n        /* \"#utility.yul\":2970:2989   */\n      add\n        /* \"#utility.yul\":2962:2989   */\n      swap1\n      pop\n        /* \"#utility.yul\":2999:3070   */\n      tag_216\n        /* \"#utility.yul\":3067:3068   */\n      0x00\n        /* \"#utility.yul\":3056:3065   */\n      dup4\n        /* \"#utility.yul\":3052:3069   */\n      add\n        /* \"#utility.yul\":3043:3049   */\n      dup8\n        /* \"#utility.yul\":2999:3070   */\n      tag_131\n      jump\t// in\n    tag_216:\n        /* \"#utility.yul\":3080:3152   */\n      tag_217\n        /* \"#utility.yul\":3148:3150   */\n      0x20\n        /* \"#utility.yul\":3137:3146   */\n      dup4\n        /* \"#utility.yul\":3133:3151   */\n      add\n        /* \"#utility.yul\":3124:3130   */\n      dup7\n        /* \"#utility.yul\":3080:3152   */\n      tag_131\n      jump\t// in\n    tag_217:\n        /* \"#utility.yul\":3162:3234   */\n      tag_218\n        /* \"#utility.yul\":3230:3232   */\n      0x40\n        /* \"#utility.yul\":3219:3228   */\n      dup4\n        /* \"#utility.yul\":3215:3233   */\n      add\n        /* \"#utility.yul\":3206:3212   */\n      dup6\n        /* \"#utility.yul\":3162:3234   */\n      tag_131\n      jump\t// in\n    tag_218:\n        /* \"#utility.yul\":3244:3316   */\n      tag_219\n        /* \"#utility.yul\":3312:3314   */\n      0x60\n        /* \"#utility.yul\":3301:3310   */\n      dup4\n        /* \"#utility.yul\":3297:3315   */\n      add\n        /* \"#utility.yul\":3288:3294   */\n      dup5\n        /* \"#utility.yul\":3244:3316   */\n      tag_143\n      jump\t// in\n    tag_219:\n        /* \"#utility.yul\":2770:3323   */\n      swap6\n      swap5\n      pop\n      pop\n      pop\n      pop\n      pop\n      jump\t// out\n        /* \"#utility.yul\":3329:3428   */\n    tag_144:\n        /* \"#utility.yul\":3381:3387   */\n      0x00\n        /* \"#utility.yul\":3415:3420   */\n      dup2\n        /* \"#utility.yul\":3409:3421   */\n      mload\n        /* \"#utility.yul\":3399:3421   */\n      swap1\n      pop\n        /* \"#utility.yul\":3329:3428   */\n      swap2\n      swap1\n      pop\n      jump\t// out\n        /* \"#utility.yul\":3434:3603   */\n    tag_145:\n        /* \"#utility.yul\":3518:3529   */\n      0x00\n        /* \"#utility.yul\":3552:3558   */\n      dup3\n        /* \"#utility.yul\":3547:3550   */\n      dup3\n        /* \"#utility.yul\":3540:3559   */\n      mstore\n        /* \"#utility.yul\":3592:3596   */\n      0x20\n        /* \"#utility.yul\":3587:3590   */\n      dup3\n        /* \"#utility.yul\":3583:3597   */\n      add\n        /* \"#utility.yul\":3568:3597   */\n      swap1\n      pop\n        /* \"#utility.yul\":3434:3603   */\n      swap3\n      swap2\n      pop\n      pop\n      jump\t// out\n        /* \"#utility.yul\":3609:3916   */\n    tag_146:\n        /* \"#utility.yul\":3677:3678   */\n      0x00\n        /* \"#utility.yul\":3687:3800   */\n    tag_223:\n        /* \"#utility.yul\":3701:3707   */\n      dup4\n        /* \"#utility.yul\":3698:3699   */\n      dup2\n        /* \"#utility.yul\":3695:3708   */\n      lt\n        /* \"#utility.yul\":3687:3800   */\n      iszero\n      tag_225\n      jumpi\n        /* \"#utility.yul\":3786:3787   */\n      dup1\n        /* \"#utility.yul\":3781:3784   */\n      dup3\n        /* \"#utility.yul\":3777:3788   */\n      add\n        /* \"#utility.yul\":3771:3789   */\n      mload\n        /* \"#utility.yul\":3767:3768   */\n      dup2\n        /* \"#utility.yul\":3762:3765   */\n      dup5\n        /* \"#utility.yul\":3758:3769   */\n      add\n        /* \"#utility.yul\":3751:3790   */\n      mstore\n        /* \"#utility.yul\":3723:3725   */\n      0x20\n        /* \"#utility.yul\":3720:3721   */\n      dup2\n        /* \"#utility.yul\":3716:3726   */\n      add\n        /* \"#utility.yul\":3711:3726   */\n      swap1\n      pop\n        /* \"#utility.yul\":3687:3800   */\n      jump(tag_223)\n    tag_225:\n        /* \"#utility.yul\":3818:3824   */\n      dup4\n        /* \"#utility.yul\":3815:3816   */\n      dup2\n        /* \"#utility.yul\":3812:3825   */\n      gt\n        /* \"#utility.yul\":3809:3910   */\n      iszero\n      tag_226\n      jumpi\n        /* \"#utility.yul\":3898:3899   */\n      0x00\n        /* \"#utility.yul\":3889:3895   */\n      dup5\n        /* \"#utility.yul\":3884:3887   */\n      dup5\n        /* \"#utility.yul\":3880:3896   */\n      add\n        /* \"#utility.yul\":3873:3900   */\n      mstore\n        /* \"#utility.yul\":3809:3910   */\n    tag_226:\n        /* \"#utility.yul\":3658:3916   */\n      pop\n        /* \"#utility.yul\":3609:3916   */\n      pop\n      pop\n      pop\n      jump\t// out\n        /* \"#utility.yul\":3922:4024   */\n    tag_147:\n        /* \"#utility.yul\":3963:3969   */\n      0x00\n        /* \"#utility.yul\":4014:4016   */\n      0x1f\n        /* \"#utility.yul\":4010:4017   */\n      not\n        /* \"#utility.yul\":4005:4007   */\n      0x1f\n        /* \"#utility.yul\":3998:4003   */\n      dup4\n        /* \"#utility.yul\":3994:4008   */\n      add\n        /* \"#utility.yul\":3990:4018   */\n      and\n        /* \"#utility.yul\":3980:4018   */\n      swap1\n      pop\n        /* \"#utility.yul\":3922:4024   */\n      swap2\n      swap1\n      pop\n      jump\t// out\n        /* \"#utility.yul\":4030:4394   */\n    tag_148:\n        /* \"#utility.yul\":4118:4121   */\n      0x00\n        /* \"#utility.yul\":4146:4185   */\n      tag_229\n        /* \"#utility.yul\":4179:4184   */\n      dup3\n        /* \"#utility.yul\":4146:4185   */\n      tag_144\n      jump\t// in\n    tag_229:\n        /* \"#utility.yul\":4201:4272   */\n      tag_230\n        /* \"#utility.yul\":4265:4271   */\n      dup2\n        /* \"#utility.yul\":4260:4263   */\n      dup6\n        /* \"#utility.yul\":4201:4272   */\n      tag_145\n      jump\t// in\n    tag_230:\n        /* \"#utility.yul\":4194:4272   */\n      swap4\n      pop\n        /* \"#utility.yul\":4281:4333   */\n      tag_231\n        /* \"#utility.yul\":4326:4332   */\n      dup2\n        /* \"#utility.yul\":4321:4324   */\n      dup6\n        /* \"#utility.yul\":4314:4318   */\n      0x20\n        /* \"#utility.yul\":4307:4312   */\n      dup7\n        /* \"#utility.yul\":4303:4319   */\n      add\n        /* \"#utility.yul\":4281:4333   */\n      tag_146\n      jump\t// in\n    tag_231:\n        /* \"#utility.yul\":4358:4387   */\n      tag_232\n        /* \"#utility.yul\":4380:4386   */\n      dup2\n        /* \"#utility.yul\":4358:4387   */\n      tag_147\n      jump\t// in\n    tag_232:\n        /* \"#utility.yul\":4353:4356   */\n      dup5\n        /* \"#utility.yul\":4349:4388   */\n      add\n        /* \"#utility.yul\":4342:4388   */\n      swap2\n      pop\n        /* \"#utility.yul\":4122:4394   */\n      pop\n        /* \"#utility.yul\":4030:4394   */\n      swap3\n      swap2\n      pop\n      pop\n      jump\t// out\n        /* \"#utility.yul\":4400:5143   */\n    tag_47:\n        /* \"#utility.yul\":4619:4623   */\n      0x00\n        /* \"#utility.yul\":4657:4660   */\n      0xa0\n        /* \"#utility.yul\":4646:4655   */\n      dup3\n        /* \"#utility.yul\":4642:4661   */\n      add\n        /* \"#utility.yul\":4634:4661   */\n      swap1\n      pop\n        /* \"#utility.yul\":4707:4716   */\n      dup2\n        /* \"#utility.yul\":4701:4705   */\n      dup2\n        /* \"#utility.yul\":4697:4717   */\n      sub\n        /* \"#utility.yul\":4693:4694   */\n      0x00\n        /* \"#utility.yul\":4682:4691   */\n      dup4\n        /* \"#utility.yul\":4678:4695   */\n      add\n        /* \"#utility.yul\":4671:4718   */\n      mstore\n        /* \"#utility.yul\":4735:4813   */\n      tag_234\n        /* \"#utility.yul\":4808:4812   */\n      dup2\n        /* \"#utility.yul\":4799:4805   */\n      dup9\n        /* \"#utility.yul\":4735:4813   */\n      tag_148\n      jump\t// in\n    tag_234:\n        /* \"#utility.yul\":4727:4813   */\n      swap1\n      pop\n        /* \"#utility.yul\":4823:4895   */\n      tag_235\n        /* \"#utility.yul\":4891:4893   */\n      0x20\n        /* \"#utility.yul\":4880:4889   */\n      dup4\n        /* \"#utility.yul\":4876:4894   */\n      add\n        /* \"#utility.yul\":4867:4873   */\n      dup8\n        /* \"#utility.yul\":4823:4895   */\n      tag_131\n      jump\t// in\n    tag_235:\n        /* \"#utility.yul\":4905:4977   */\n      tag_236\n        /* \"#utility.yul\":4973:4975   */\n      0x40\n        /* \"#utility.yul\":4962:4971   */\n      dup4\n        /* \"#utility.yul\":4958:4976   */\n      add\n        /* \"#utility.yul\":4949:4955   */\n      dup7\n        /* \"#utility.yul\":4905:4977   */\n      tag_143\n      jump\t// in\n    tag_236:\n        /* \"#utility.yul\":4987:5053   */\n      tag_237\n        /* \"#utility.yul\":5049:5051   */\n      0x60\n        /* \"#utility.yul\":5038:5047   */\n      dup4\n        /* \"#utility.yul\":5034:5052   */\n      add\n        /* \"#utility.yul\":5025:5031   */\n      dup6\n        /* \"#utility.yul\":4987:5053   */\n      tag_142\n      jump\t// in\n    tag_237:\n        /* \"#utility.yul\":5063:5136   */\n      tag_238\n        /* \"#utility.yul\":5131:5134   */\n      0x80\n        /* \"#utility.yul\":5120:5129   */\n      dup4\n        /* \"#utility.yul\":5116:5135   */\n      add\n        /* \"#utility.yul\":5107:5113   */\n      dup5\n        /* \"#utility.yul\":5063:5136   */\n      tag_131\n      jump\t// in\n    tag_238:\n        /* \"#utility.yul\":4400:5143   */\n      swap7\n      swap6\n      pop\n      pop\n      pop\n      pop\n      pop\n      pop\n      jump\t// out\n        /* \"#utility.yul\":5149:5266   */\n    tag_149:\n        /* \"#utility.yul\":5258:5259   */\n      0x00\n        /* \"#utility.yul\":5255:5256   */\n      dup1\n        /* \"#utility.yul\":5248:5260   */\n      revert\n        /* \"#utility.yul\":5272:5389   */\n    tag_150:\n        /* \"#utility.yul\":5381:5382   */\n      0x00\n        /* \"#utility.yul\":5378:5379   */\n      dup1\n        /* \"#utility.yul\":5371:5383   */\n      revert\n        /* \"#utility.yul\":5395:5575   */\n    tag_151:\n        /* \"#utility.yul\":5443:5520   */\n      0x4e487b7100000000000000000000000000000000000000000000000000000000\n        /* \"#utility.yul\":5440:5441   */\n      0x00\n        /* \"#utility.yul\":5433:5521   */\n      mstore\n        /* \"#utility.yul\":5540:5544   */\n      0x41\n        /* \"#utility.yul\":5537:5538   */\n      0x04\n        /* \"#utility.yul\":5530:5545   */\n      mstore\n        /* \"#utility.yul\":5564:5568   */\n      0x24\n        /* \"#utility.yul\":5561:5562   */\n      0x00\n        /* \"#utility.yul\":5554:5569   */\n      revert\n        /* \"#utility.yul\":5581:5862   */\n    tag_152:\n        /* \"#utility.yul\":5664:5691   */\n      tag_243\n        /* \"#utility.yul\":5686:5690   */\n      dup3\n        /* \"#utility.yul\":5664:5691   */\n      tag_147\n      jump\t// in\n    tag_243:\n        /* \"#utility.yul\":5656:5662   */\n      dup2\n        /* \"#utility.yul\":5652:5692   */\n      add\n        /* \"#utility.yul\":5794:5800   */\n      dup2\n        /* \"#utility.yul\":5782:5792   */\n      dup2\n        /* \"#utility.yul\":5779:5801   */\n      lt\n        /* \"#utility.yul\":5758:5776   */\n      0xffffffffffffffff\n        /* \"#utility.yul\":5746:5756   */\n      dup3\n        /* \"#utility.yul\":5743:5777   */\n      gt\n        /* \"#utility.yul\":5740:5802   */\n      or\n        /* \"#utility.yul\":5737:5825   */\n      iszero\n      tag_244\n      jumpi\n        /* \"#utility.yul\":5805:5823   */\n      tag_245\n      tag_151\n      jump\t// in\n    tag_245:\n        /* \"#utility.yul\":5737:5825   */\n    tag_244:\n        /* \"#utility.yul\":5845:5855   */\n      dup1\n        /* \"#utility.yul\":5841:5843   */\n      0x40\n        /* \"#utility.yul\":5834:5856   */\n      mstore\n        /* \"#utility.yul\":5624:5862   */\n      pop\n        /* \"#utility.yul\":5581:5862   */\n      pop\n      pop\n      jump\t// out\n        /* \"#utility.yul\":5868:5997   */\n    tag_153:\n        /* \"#utility.yul\":5902:5908   */\n      0x00\n        /* \"#utility.yul\":5929:5949   */\n      tag_247\n      tag_132\n      jump\t// in\n    tag_247:\n        /* \"#utility.yul\":5919:5949   */\n      swap1\n      pop\n        /* \"#utility.yul\":5958:5991   */\n      tag_248\n        /* \"#utility.yul\":5986:5990   */\n      dup3\n        /* \"#utility.yul\":5978:5984   */\n      dup3\n        /* \"#utility.yul\":5958:5991   */\n      tag_152\n      jump\t// in\n    tag_248:\n        /* \"#utility.yul\":5868:5997   */\n      swap2\n      swap1\n      pop\n      jump\t// out\n        /* \"#utility.yul\":6003:6311   */\n    tag_154:\n        /* \"#utility.yul\":6065:6069   */\n      0x00\n        /* \"#utility.yul\":6155:6173   */\n      0xffffffffffffffff\n        /* \"#utility.yul\":6147:6153   */\n      dup3\n        /* \"#utility.yul\":6144:6174   */\n      gt\n        /* \"#utility.yul\":6141:6197   */\n      iszero\n      tag_250\n      jumpi\n        /* \"#utility.yul\":6177:6195   */\n      tag_251\n      tag_151\n      jump\t// in\n    tag_251:\n        /* \"#utility.yul\":6141:6197   */\n    tag_250:\n        /* \"#utility.yul\":6215:6244   */\n      tag_252\n        /* \"#utility.yul\":6237:6243   */\n      dup3\n        /* \"#utility.yul\":6215:6244   */\n      tag_147\n      jump\t// in\n    tag_252:\n        /* \"#utility.yul\":6207:6244   */\n      swap1\n      pop\n        /* \"#utility.yul\":6299:6303   */\n      0x20\n        /* \"#utility.yul\":6293:6297   */\n      dup2\n        /* \"#utility.yul\":6289:6304   */\n      add\n        /* \"#utility.yul\":6281:6304   */\n      swap1\n      pop\n        /* \"#utility.yul\":6003:6311   */\n      swap2\n      swap1\n      pop\n      jump\t// out\n        /* \"#utility.yul\":6317:6471   */\n    tag_155:\n        /* \"#utility.yul\":6401:6407   */\n      dup3\n        /* \"#utility.yul\":6396:6399   */\n      dup2\n        /* \"#utility.yul\":6391:6394   */\n      dup4\n        /* \"#utility.yul\":6378:6408   */\n      calldatacopy\n        /* \"#utility.yul\":6463:6464   */\n      0x00\n        /* \"#utility.yul\":6454:6460   */\n      dup4\n        /* \"#utility.yul\":6449:6452   */\n      dup4\n        /* \"#utility.yul\":6445:6461   */\n      add\n        /* \"#utility.yul\":6438:6465   */\n      mstore\n        /* \"#utility.yul\":6317:6471   */\n      pop\n      pop\n      pop\n      jump\t// out\n        /* \"#utility.yul\":6477:6889   */\n    tag_156:\n        /* \"#utility.yul\":6555:6560   */\n      0x00\n        /* \"#utility.yul\":6580:6646   */\n      tag_255\n        /* \"#utility.yul\":6596:6645   */\n      tag_256\n        /* \"#utility.yul\":6638:6644   */\n      dup5\n        /* \"#utility.yul\":6596:6645   */\n      tag_154\n      jump\t// in\n    tag_256:\n        /* \"#utility.yul\":6580:6646   */\n      tag_153\n      jump\t// in\n    tag_255:\n        /* \"#utility.yul\":6571:6646   */\n      swap1\n      pop\n        /* \"#utility.yul\":6669:6675   */\n      dup3\n        /* \"#utility.yul\":6662:6667   */\n      dup2\n        /* \"#utility.yul\":6655:6676   */\n      mstore\n        /* \"#utility.yul\":6707:6711   */\n      0x20\n        /* \"#utility.yul\":6700:6705   */\n      dup2\n        /* \"#utility.yul\":6696:6712   */\n      add\n        /* \"#utility.yul\":6745:6748   */\n      dup5\n        /* \"#utility.yul\":6736:6742   */\n      dup5\n        /* \"#utility.yul\":6731:6734   */\n      dup5\n        /* \"#utility.yul\":6727:6743   */\n      add\n        /* \"#utility.yul\":6724:6749   */\n      gt\n        /* \"#utility.yul\":6721:6833   */\n      iszero\n      tag_257\n      jumpi\n        /* \"#utility.yul\":6752:6831   */\n      tag_258\n      tag_150\n      jump\t// in\n    tag_258:\n        /* \"#utility.yul\":6721:6833   */\n    tag_257:\n        /* \"#utility.yul\":6842:6883   */\n      tag_259\n        /* \"#utility.yul\":6876:6882   */\n      dup5\n        /* \"#utility.yul\":6871:6874   */\n      dup3\n        /* \"#utility.yul\":6866:6869   */\n      dup6\n        /* \"#utility.yul\":6842:6883   */\n      tag_155\n      jump\t// in\n    tag_259:\n        /* \"#utility.yul\":6561:6889   */\n      pop\n        /* \"#utility.yul\":6477:6889   */\n      swap4\n      swap3\n      pop\n      pop\n      pop\n      jump\t// out\n        /* \"#utility.yul\":6909:7249   */\n    tag_157:\n        /* \"#utility.yul\":6965:6970   */\n      0x00\n        /* \"#utility.yul\":7014:7017   */\n      dup3\n        /* \"#utility.yul\":7007:7011   */\n      0x1f\n        /* \"#utility.yul\":6999:7005   */\n      dup4\n        /* \"#utility.yul\":6995:7012   */\n      add\n        /* \"#utility.yul\":6991:7018   */\n      slt\n        /* \"#utility.yul\":6981:7103   */\n      tag_261\n      jumpi\n        /* \"#utility.yul\":7022:7101   */\n      tag_262\n      tag_149\n      jump\t// in\n    tag_262:\n        /* \"#utility.yul\":6981:7103   */\n    tag_261:\n        /* \"#utility.yul\":7139:7145   */\n      dup2\n        /* \"#utility.yul\":7126:7146   */\n      calldataload\n        /* \"#utility.yul\":7164:7243   */\n      tag_263\n        /* \"#utility.yul\":7239:7242   */\n      dup5\n        /* \"#utility.yul\":7231:7237   */\n      dup3\n        /* \"#utility.yul\":7224:7228   */\n      0x20\n        /* \"#utility.yul\":7216:7222   */\n      dup7\n        /* \"#utility.yul\":7212:7229   */\n      add\n        /* \"#utility.yul\":7164:7243   */\n      tag_156\n      jump\t// in\n    tag_263:\n        /* \"#utility.yul\":7155:7243   */\n      swap2\n      pop\n        /* \"#utility.yul\":6971:7249   */\n      pop\n        /* \"#utility.yul\":6909:7249   */\n      swap3\n      swap2\n      pop\n      pop\n      jump\t// out\n        /* \"#utility.yul\":7255:8054   */\n    tag_51:\n        /* \"#utility.yul\":7342:7348   */\n      0x00\n        /* \"#utility.yul\":7350:7356   */\n      dup1\n        /* \"#utility.yul\":7358:7364   */\n      0x00\n        /* \"#utility.yul\":7407:7409   */\n      0x60\n        /* \"#utility.yul\":7395:7404   */\n      dup5\n        /* \"#utility.yul\":7386:7393   */\n      dup7\n        /* \"#utility.yul\":7382:7405   */\n      sub\n        /* \"#utility.yul\":7378:7410   */\n      slt\n        /* \"#utility.yul\":7375:7494   */\n      iszero\n      tag_265\n      jumpi\n        /* \"#utility.yul\":7413:7492   */\n      tag_266\n      tag_133\n      jump\t// in\n    tag_266:\n        /* \"#utility.yul\":7375:7494   */\n    tag_265:\n        /* \"#utility.yul\":7561:7562   */\n      0x00\n        /* \"#utility.yul\":7550:7559   */\n      dup5\n        /* \"#utility.yul\":7546:7563   */\n      add\n        /* \"#utility.yul\":7533:7564   */\n      calldataload\n        /* \"#utility.yul\":7591:7609   */\n      0xffffffffffffffff\n        /* \"#utility.yul\":7583:7589   */\n      dup2\n        /* \"#utility.yul\":7580:7610   */\n      gt\n        /* \"#utility.yul\":7577:7694   */\n      iszero\n      tag_267\n      jumpi\n        /* \"#utility.yul\":7613:7692   */\n      tag_268\n      tag_134\n      jump\t// in\n    tag_268:\n        /* \"#utility.yul\":7577:7694   */\n    tag_267:\n        /* \"#utility.yul\":7718:7781   */\n      tag_269\n        /* \"#utility.yul\":7773:7780   */\n      dup7\n        /* \"#utility.yul\":7764:7770   */\n      dup3\n        /* \"#utility.yul\":7753:7762   */\n      dup8\n        /* \"#utility.yul\":7749:7771   */\n      add\n        /* \"#utility.yul\":7718:7781   */\n      tag_157\n      jump\t// in\n    tag_269:\n        /* \"#utility.yul\":7708:7781   */\n      swap4\n      pop\n        /* \"#utility.yul\":7504:7791   */\n      pop\n        /* \"#utility.yul\":7830:7832   */\n      0x20\n        /* \"#utility.yul\":7856:7909   */\n      tag_270\n        /* \"#utility.yul\":7901:7908   */\n      dup7\n        /* \"#utility.yul\":7892:7898   */\n      dup3\n        /* \"#utility.yul\":7881:7890   */\n      dup8\n        /* \"#utility.yul\":7877:7899   */\n      add\n        /* \"#utility.yul\":7856:7909   */\n      tag_136\n      jump\t// in\n    tag_270:\n        /* \"#utility.yul\":7846:7909   */\n      swap3\n      pop\n        /* \"#utility.yul\":7801:7919   */\n      pop\n        /* \"#utility.yul\":7958:7960   */\n      0x40\n        /* \"#utility.yul\":7984:8037   */\n      tag_271\n        /* \"#utility.yul\":8029:8036   */\n      dup7\n        /* \"#utility.yul\":8020:8026   */\n      dup3\n        /* \"#utility.yul\":8009:8018   */\n      dup8\n        /* \"#utility.yul\":8005:8027   */\n      add\n        /* \"#utility.yul\":7984:8037   */\n      tag_140\n      jump\t// in\n    tag_271:\n        /* \"#utility.yul\":7974:8037   */\n      swap2\n      pop\n        /* \"#utility.yul\":7929:8047   */\n      pop\n        /* \"#utility.yul\":7255:8054   */\n      swap3\n      pop\n      swap3\n      pop\n      swap3\n      jump\t// out\n        /* \"#utility.yul\":8060:8293   */\n    tag_158:\n        /* \"#utility.yul\":8200:8234   */\n      0x4f6e6c79206f776e657220616e6420617070726f766572732063616e20726571\n        /* \"#utility.yul\":8196:8197   */\n      0x00\n        /* \"#utility.yul\":8188:8194   */\n      dup3\n        /* \"#utility.yul\":8184:8198   */\n      add\n        /* \"#utility.yul\":8177:8235   */\n      mstore\n        /* \"#utility.yul\":8269:8285   */\n      0x7565737420776974686472617721000000000000000000000000000000000000\n        /* \"#utility.yul\":8264:8266   */\n      0x20\n        /* \"#utility.yul\":8256:8262   */\n      dup3\n        /* \"#utility.yul\":8252:8267   */\n      add\n        /* \"#utility.yul\":8245:8286   */\n      mstore\n        /* \"#utility.yul\":8060:8293   */\n      pop\n      jump\t// out\n        /* \"#utility.yul\":8299:8665   */\n    tag_159:\n        /* \"#utility.yul\":8441:8444   */\n      0x00\n        /* \"#utility.yul\":8462:8529   */\n      tag_274\n        /* \"#utility.yul\":8526:8528   */\n      0x2e\n        /* \"#utility.yul\":8521:8524   */\n      dup4\n        /* \"#utility.yul\":8462:8529   */\n      tag_145\n      jump\t// in\n    tag_274:\n        /* \"#utility.yul\":8455:8529   */\n      swap2\n      pop\n        /* \"#utility.yul\":8538:8631   */\n      tag_275\n        /* \"#utility.yul\":8627:8630   */\n      dup3\n        /* \"#utility.yul\":8538:8631   */\n      tag_158\n      jump\t// in\n    tag_275:\n        /* \"#utility.yul\":8656:8658   */\n      0x40\n        /* \"#utility.yul\":8651:8654   */\n      dup3\n        /* \"#utility.yul\":8647:8659   */\n      add\n        /* \"#utility.yul\":8640:8659   */\n      swap1\n      pop\n        /* \"#utility.yul\":8299:8665   */\n      swap2\n      swap1\n      pop\n      jump\t// out\n        /* \"#utility.yul\":8671:9090   */\n    tag_65:\n        /* \"#utility.yul\":8837:8841   */\n      0x00\n        /* \"#utility.yul\":8875:8877   */\n      0x20\n        /* \"#utility.yul\":8864:8873   */\n      dup3\n        /* \"#utility.yul\":8860:8878   */\n      add\n        /* \"#utility.yul\":8852:8878   */\n      swap1\n      pop\n        /* \"#utility.yul\":8924:8933   */\n      dup2\n        /* \"#utility.yul\":8918:8922   */\n      dup2\n        /* \"#utility.yul\":8914:8934   */\n      sub\n        /* \"#utility.yul\":8910:8911   */\n      0x00\n        /* \"#utility.yul\":8899:8908   */\n      dup4\n        /* \"#utility.yul\":8895:8912   */\n      add\n        /* \"#utility.yul\":8888:8935   */\n      mstore\n        /* \"#utility.yul\":8952:9083   */\n      tag_277\n        /* \"#utility.yul\":9078:9082   */\n      dup2\n        /* \"#utility.yul\":8952:9083   */\n      tag_159\n      jump\t// in\n    tag_277:\n        /* \"#utility.yul\":8944:9083   */\n      swap1\n      pop\n        /* \"#utility.yul\":8671:9090   */\n      swap2\n      swap1\n      pop\n      jump\t// out\n        /* \"#utility.yul\":9096:9276   */\n    tag_160:\n        /* \"#utility.yul\":9144:9221   */\n      0x4e487b7100000000000000000000000000000000000000000000000000000000\n        /* \"#utility.yul\":9141:9142   */\n      0x00\n        /* \"#utility.yul\":9134:9222   */\n      mstore\n        /* \"#utility.yul\":9241:9245   */\n      0x12\n        /* \"#utility.yul\":9238:9239   */\n      0x04\n        /* \"#utility.yul\":9231:9246   */\n      mstore\n        /* \"#utility.yul\":9265:9269   */\n      0x24\n        /* \"#utility.yul\":9262:9263   */\n      0x00\n        /* \"#utility.yul\":9255:9270   */\n      revert\n        /* \"#utility.yul\":9282:9462   */\n    tag_161:\n        /* \"#utility.yul\":9330:9407   */\n      0x4e487b7100000000000000000000000000000000000000000000000000000000\n        /* \"#utility.yul\":9327:9328   */\n      0x00\n        /* \"#utility.yul\":9320:9408   */\n      mstore\n        /* \"#utility.yul\":9427:9431   */\n      0x11\n        /* \"#utility.yul\":9424:9425   */\n      0x04\n        /* \"#utility.yul\":9417:9432   */\n      mstore\n        /* \"#utility.yul\":9451:9455   */\n      0x24\n        /* \"#utility.yul\":9448:9449   */\n      0x00\n        /* \"#utility.yul\":9441:9456   */\n      revert\n        /* \"#utility.yul\":9468:9653   */\n    tag_68:\n        /* \"#utility.yul\":9508:9509   */\n      0x00\n        /* \"#utility.yul\":9525:9545   */\n      tag_281\n        /* \"#utility.yul\":9543:9544   */\n      dup3\n        /* \"#utility.yul\":9525:9545   */\n      tag_130\n      jump\t// in\n    tag_281:\n        /* \"#utility.yul\":9520:9545   */\n      swap2\n      pop\n        /* \"#utility.yul\":9559:9579   */\n      tag_282\n        /* \"#utility.yul\":9577:9578   */\n      dup4\n        /* \"#utility.yul\":9559:9579   */\n      tag_130\n      jump\t// in\n    tag_282:\n        /* \"#utility.yul\":9554:9579   */\n      swap3\n      pop\n        /* \"#utility.yul\":9598:9599   */\n      dup3\n        /* \"#utility.yul\":9588:9623   */\n      tag_283\n      jumpi\n        /* \"#utility.yul\":9603:9621   */\n      tag_284\n      tag_160\n      jump\t// in\n    tag_284:\n        /* \"#utility.yul\":9588:9623   */\n    tag_283:\n        /* \"#utility.yul\":9645:9646   */\n      dup3\n        /* \"#utility.yul\":9642:9643   */\n      dup3\n        /* \"#utility.yul\":9638:9647   */\n      div\n        /* \"#utility.yul\":9633:9647   */\n      swap1\n      pop\n        /* \"#utility.yul\":9468:9653   */\n      swap3\n      swap2\n      pop\n      pop\n      jump\t// out\n        /* \"#utility.yul\":9659:9888   */\n    tag_162:\n        /* \"#utility.yul\":9799:9833   */\n      0x4e6f7420656e6f7567687420617070726f76616c20746f2066696e6973682074\n        /* \"#utility.yul\":9795:9796   */\n      0x00\n        /* \"#utility.yul\":9787:9793   */\n      dup3\n        /* \"#utility.yul\":9783:9797   */\n      add\n        /* \"#utility.yul\":9776:9834   */\n      mstore\n        /* \"#utility.yul\":9868:9880   */\n      0x6865207265717565737400000000000000000000000000000000000000000000\n        /* \"#utility.yul\":9863:9865   */\n      0x20\n        /* \"#utility.yul\":9855:9861   */\n      dup3\n        /* \"#utility.yul\":9851:9866   */\n      add\n        /* \"#utility.yul\":9844:9881   */\n      mstore\n        /* \"#utility.yul\":9659:9888   */\n      pop\n      jump\t// out\n        /* \"#utility.yul\":9894:10260   */\n    tag_163:\n        /* \"#utility.yul\":10036:10039   */\n      0x00\n        /* \"#utility.yul\":10057:10124   */\n      tag_287\n        /* \"#utility.yul\":10121:10123   */\n      0x2a\n        /* \"#utility.yul\":10116:10119   */\n      dup4\n        /* \"#utility.yul\":10057:10124   */\n      tag_145\n      jump\t// in\n    tag_287:\n        /* \"#utility.yul\":10050:10124   */\n      swap2\n      pop\n        /* \"#utility.yul\":10133:10226   */\n      tag_288\n        /* \"#utility.yul\":10222:10225   */\n      dup3\n        /* \"#utility.yul\":10133:10226   */\n      tag_162\n      jump\t// in\n    tag_288:\n        /* \"#utility.yul\":10251:10253   */\n      0x40\n        /* \"#utility.yul\":10246:10249   */\n      dup3\n        /* \"#utility.yul\":10242:10254   */\n      add\n        /* \"#utility.yul\":10235:10254   */\n      swap1\n      pop\n        /* \"#utility.yul\":9894:10260   */\n      swap2\n      swap1\n      pop\n      jump\t// out\n        /* \"#utility.yul\":10266:10685   */\n    tag_71:\n        /* \"#utility.yul\":10432:10436   */\n      0x00\n        /* \"#utility.yul\":10470:10472   */\n      0x20\n        /* \"#utility.yul\":10459:10468   */\n      dup3\n        /* \"#utility.yul\":10455:10473   */\n      add\n        /* \"#utility.yul\":10447:10473   */\n      swap1\n      pop\n        /* \"#utility.yul\":10519:10528   */\n      dup2\n        /* \"#utility.yul\":10513:10517   */\n      dup2\n        /* \"#utility.yul\":10509:10529   */\n      sub\n        /* \"#utility.yul\":10505:10506   */\n      0x00\n        /* \"#utility.yul\":10494:10503   */\n      dup4\n        /* \"#utility.yul\":10490:10507   */\n      add\n        /* \"#utility.yul\":10483:10530   */\n      mstore\n        /* \"#utility.yul\":10547:10678   */\n      tag_290\n        /* \"#utility.yul\":10673:10677   */\n      dup2\n        /* \"#utility.yul\":10547:10678   */\n      tag_163\n      jump\t// in\n    tag_290:\n        /* \"#utility.yul\":10539:10678   */\n      swap1\n      pop\n        /* \"#utility.yul\":10266:10685   */\n      swap2\n      swap1\n      pop\n      jump\t// out\n        /* \"#utility.yul\":10691:10869   */\n    tag_164:\n        /* \"#utility.yul\":10831:10861   */\n      0x526571756573742077617320616c72656164792066696e697368656400000000\n        /* \"#utility.yul\":10827:10828   */\n      0x00\n        /* \"#utility.yul\":10819:10825   */\n      dup3\n        /* \"#utility.yul\":10815:10829   */\n      add\n        /* \"#utility.yul\":10808:10862   */\n      mstore\n        /* \"#utility.yul\":10691:10869   */\n      pop\n      jump\t// out\n        /* \"#utility.yul\":10875:11241   */\n    tag_165:\n        /* \"#utility.yul\":11017:11020   */\n      0x00\n        /* \"#utility.yul\":11038:11105   */\n      tag_293\n        /* \"#utility.yul\":11102:11104   */\n      0x1c\n        /* \"#utility.yul\":11097:11100   */\n      dup4\n        /* \"#utility.yul\":11038:11105   */\n      tag_145\n      jump\t// in\n    tag_293:\n        /* \"#utility.yul\":11031:11105   */\n      swap2\n      pop\n        /* \"#utility.yul\":11114:11207   */\n      tag_294\n        /* \"#utility.yul\":11203:11206   */\n      dup3\n        /* \"#utility.yul\":11114:11207   */\n      tag_164\n      jump\t// in\n    tag_294:\n        /* \"#utility.yul\":11232:11234   */\n      0x20\n        /* \"#utility.yul\":11227:11230   */\n      dup3\n        /* \"#utility.yul\":11223:11235   */\n      add\n        /* \"#utility.yul\":11216:11235   */\n      swap1\n      pop\n        /* \"#utility.yul\":10875:11241   */\n      swap2\n      swap1\n      pop\n      jump\t// out\n        /* \"#utility.yul\":11247:11666   */\n    tag_74:\n        /* \"#utility.yul\":11413:11417   */\n      0x00\n        /* \"#utility.yul\":11451:11453   */\n      0x20\n        /* \"#utility.yul\":11440:11449   */\n      dup3\n        /* \"#utility.yul\":11436:11454   */\n      add\n        /* \"#utility.yul\":11428:11454   */\n      swap1\n      pop\n        /* \"#utility.yul\":11500:11509   */\n      dup2\n        /* \"#utility.yul\":11494:11498   */\n      dup2\n        /* \"#utility.yul\":11490:11510   */\n      sub\n        /* \"#utility.yul\":11486:11487   */\n      0x00\n        /* \"#utility.yul\":11475:11484   */\n      dup4\n        /* \"#utility.yul\":11471:11488   */\n      add\n        /* \"#utility.yul\":11464:11511   */\n      mstore\n        /* \"#utility.yul\":11528:11659   */\n      tag_296\n        /* \"#utility.yul\":11654:11658   */\n      dup2\n        /* \"#utility.yul\":11528:11659   */\n      tag_165\n      jump\t// in\n    tag_296:\n        /* \"#utility.yul\":11520:11659   */\n      swap1\n      pop\n        /* \"#utility.yul\":11247:11666   */\n      swap2\n      swap1\n      pop\n      jump\t// out\n        /* \"#utility.yul\":11672:11819   */\n    tag_166:\n        /* \"#utility.yul\":11773:11784   */\n      0x00\n        /* \"#utility.yul\":11810:11813   */\n      dup2\n        /* \"#utility.yul\":11795:11813   */\n      swap1\n      pop\n        /* \"#utility.yul\":11672:11819   */\n      swap3\n      swap2\n      pop\n      pop\n      jump\t// out\n        /* \"#utility.yul\":11825:11939   */\n    tag_167:\n      pop\n      jump\t// out\n        /* \"#utility.yul\":11945:12343   */\n    tag_168:\n        /* \"#utility.yul\":12104:12107   */\n      0x00\n        /* \"#utility.yul\":12125:12208   */\n      tag_300\n        /* \"#utility.yul\":12206:12207   */\n      0x00\n        /* \"#utility.yul\":12201:12204   */\n      dup4\n        /* \"#utility.yul\":12125:12208   */\n      tag_166\n      jump\t// in\n    tag_300:\n        /* \"#utility.yul\":12118:12208   */\n      swap2\n      pop\n        /* \"#utility.yul\":12217:12310   */\n      tag_301\n        /* \"#utility.yul\":12306:12309   */\n      dup3\n        /* \"#utility.yul\":12217:12310   */\n      tag_167\n      jump\t// in\n    tag_301:\n        /* \"#utility.yul\":12335:12336   */\n      0x00\n        /* \"#utility.yul\":12330:12333   */\n      dup3\n        /* \"#utility.yul\":12326:12337   */\n      add\n        /* \"#utility.yul\":12319:12337   */\n      swap1\n      pop\n        /* \"#utility.yul\":11945:12343   */\n      swap2\n      swap1\n      pop\n      jump\t// out\n        /* \"#utility.yul\":12349:12728   */\n    tag_76:\n        /* \"#utility.yul\":12533:12536   */\n      0x00\n        /* \"#utility.yul\":12555:12702   */\n      tag_303\n        /* \"#utility.yul\":12698:12701   */\n      dup3\n        /* \"#utility.yul\":12555:12702   */\n      tag_168\n      jump\t// in\n    tag_303:\n        /* \"#utility.yul\":12548:12702   */\n      swap2\n      pop\n        /* \"#utility.yul\":12719:12722   */\n      dup2\n        /* \"#utility.yul\":12712:12722   */\n      swap1\n      pop\n        /* \"#utility.yul\":12349:12728   */\n      swap2\n      swap1\n      pop\n      jump\t// out\n        /* \"#utility.yul\":12734:12900   */\n    tag_169:\n        /* \"#utility.yul\":12874:12892   */\n      0x5472616e73666572206661696c65642e00000000000000000000000000000000\n        /* \"#utility.yul\":12870:12871   */\n      0x00\n        /* \"#utility.yul\":12862:12868   */\n      dup3\n        /* \"#utility.yul\":12858:12872   */\n      add\n        /* \"#utility.yul\":12851:12893   */\n      mstore\n        /* \"#utility.yul\":12734:12900   */\n      pop\n      jump\t// out\n        /* \"#utility.yul\":12906:13272   */\n    tag_170:\n        /* \"#utility.yul\":13048:13051   */\n      0x00\n        /* \"#utility.yul\":13069:13136   */\n      tag_306\n        /* \"#utility.yul\":13133:13135   */\n      0x10\n        /* \"#utility.yul\":13128:13131   */\n      dup4\n        /* \"#utility.yul\":13069:13136   */\n      tag_145\n      jump\t// in\n    tag_306:\n        /* \"#utility.yul\":13062:13136   */\n      swap2\n      pop\n        /* \"#utility.yul\":13145:13238   */\n      tag_307\n        /* \"#utility.yul\":13234:13237   */\n      dup3\n        /* \"#utility.yul\":13145:13238   */\n      tag_169\n      jump\t// in\n    tag_307:\n        /* \"#utility.yul\":13263:13265   */\n      0x20\n        /* \"#utility.yul\":13258:13261   */\n      dup3\n        /* \"#utility.yul\":13254:13266   */\n      add\n        /* \"#utility.yul\":13247:13266   */\n      swap1\n      pop\n        /* \"#utility.yul\":12906:13272   */\n      swap2\n      swap1\n      pop\n      jump\t// out\n        /* \"#utility.yul\":13278:13697   */\n    tag_82:\n        /* \"#utility.yul\":13444:13448   */\n      0x00\n        /* \"#utility.yul\":13482:13484   */\n      0x20\n        /* \"#utility.yul\":13471:13480   */\n      dup3\n        /* \"#utility.yul\":13467:13485   */\n      add\n        /* \"#utility.yul\":13459:13485   */\n      swap1\n      pop\n        /* \"#utility.yul\":13531:13540   */\n      dup2\n        /* \"#utility.yul\":13525:13529   */\n      dup2\n        /* \"#utility.yul\":13521:13541   */\n      sub\n        /* \"#utility.yul\":13517:13518   */\n      0x00\n        /* \"#utility.yul\":13506:13515   */\n      dup4\n        /* \"#utility.yul\":13502:13519   */\n      add\n        /* \"#utility.yul\":13495:13542   */\n      mstore\n        /* \"#utility.yul\":13559:13690   */\n      tag_309\n        /* \"#utility.yul\":13685:13689   */\n      dup2\n        /* \"#utility.yul\":13559:13690   */\n      tag_170\n      jump\t// in\n    tag_309:\n        /* \"#utility.yul\":13551:13690   */\n      swap1\n      pop\n        /* \"#utility.yul\":13278:13697   */\n      swap2\n      swap1\n      pop\n      jump\t// out\n        /* \"#utility.yul\":13703:13882   */\n    tag_171:\n        /* \"#utility.yul\":13843:13874   */\n      0x4f6e6c79206f776e65722063616e2061646420617070726f7665727321000000\n        /* \"#utility.yul\":13839:13840   */\n      0x00\n        /* \"#utility.yul\":13831:13837   */\n      dup3\n        /* \"#utility.yul\":13827:13841   */\n      add\n        /* \"#utility.yul\":13820:13875   */\n      mstore\n        /* \"#utility.yul\":13703:13882   */\n      pop\n      jump\t// out\n        /* \"#utility.yul\":13888:14254   */\n    tag_172:\n        /* \"#utility.yul\":14030:14033   */\n      0x00\n        /* \"#utility.yul\":14051:14118   */\n      tag_312\n        /* \"#utility.yul\":14115:14117   */\n      0x1d\n        /* \"#utility.yul\":14110:14113   */\n      dup4\n        /* \"#utility.yul\":14051:14118   */\n      tag_145\n      jump\t// in\n    tag_312:\n        /* \"#utility.yul\":14044:14118   */\n      swap2\n      pop\n        /* \"#utility.yul\":14127:14220   */\n      tag_313\n        /* \"#utility.yul\":14216:14219   */\n      dup3\n        /* \"#utility.yul\":14127:14220   */\n      tag_171\n      jump\t// in\n    tag_313:\n        /* \"#utility.yul\":14245:14247   */\n      0x20\n        /* \"#utility.yul\":14240:14243   */\n      dup3\n        /* \"#utility.yul\":14236:14248   */\n      add\n        /* \"#utility.yul\":14229:14248   */\n      swap1\n      pop\n        /* \"#utility.yul\":13888:14254   */\n      swap2\n      swap1\n      pop\n      jump\t// out\n        /* \"#utility.yul\":14260:14679   */\n    tag_88:\n        /* \"#utility.yul\":14426:14430   */\n      0x00\n        /* \"#utility.yul\":14464:14466   */\n      0x20\n        /* \"#utility.yul\":14453:14462   */\n      dup3\n        /* \"#utility.yul\":14449:14467   */\n      add\n        /* \"#utility.yul\":14441:14467   */\n      swap1\n      pop\n        /* \"#utility.yul\":14513:14522   */\n      dup2\n        /* \"#utility.yul\":14507:14511   */\n      dup2\n        /* \"#utility.yul\":14503:14523   */\n      sub\n        /* \"#utility.yul\":14499:14500   */\n      0x00\n        /* \"#utility.yul\":14488:14497   */\n      dup4\n        /* \"#utility.yul\":14484:14501   */\n      add\n        /* \"#utility.yul\":14477:14524   */\n      mstore\n        /* \"#utility.yul\":14541:14672   */\n      tag_315\n        /* \"#utility.yul\":14667:14671   */\n      dup2\n        /* \"#utility.yul\":14541:14672   */\n      tag_172\n      jump\t// in\n    tag_315:\n        /* \"#utility.yul\":14533:14672   */\n      swap1\n      pop\n        /* \"#utility.yul\":14260:14679   */\n      swap2\n      swap1\n      pop\n      jump\t// out\n        /* \"#utility.yul\":14685:14856   */\n    tag_91:\n        /* \"#utility.yul\":14724:14727   */\n      0x00\n        /* \"#utility.yul\":14747:14771   */\n      tag_317\n        /* \"#utility.yul\":14765:14770   */\n      dup3\n        /* \"#utility.yul\":14747:14771   */\n      tag_130\n      jump\t// in\n    tag_317:\n        /* \"#utility.yul\":14738:14771   */\n      swap2\n      pop\n        /* \"#utility.yul\":14793:14797   */\n      0x00\n        /* \"#utility.yul\":14786:14791   */\n      dup3\n        /* \"#utility.yul\":14783:14798   */\n      sub\n        /* \"#utility.yul\":14780:14821   */\n      tag_318\n      jumpi\n        /* \"#utility.yul\":14801:14819   */\n      tag_319\n      tag_161\n      jump\t// in\n    tag_319:\n        /* \"#utility.yul\":14780:14821   */\n    tag_318:\n        /* \"#utility.yul\":14848:14849   */\n      0x01\n        /* \"#utility.yul\":14841:14846   */\n      dup3\n        /* \"#utility.yul\":14837:14850   */\n      sub\n        /* \"#utility.yul\":14830:14850   */\n      swap1\n      pop\n        /* \"#utility.yul\":14685:14856   */\n      swap2\n      swap1\n      pop\n      jump\t// out\n        /* \"#utility.yul\":14862:15042   */\n    tag_173:\n        /* \"#utility.yul\":14910:14987   */\n      0x4e487b7100000000000000000000000000000000000000000000000000000000\n        /* \"#utility.yul\":14907:14908   */\n      0x00\n        /* \"#utility.yul\":14900:14988   */\n      mstore\n        /* \"#utility.yul\":15007:15011   */\n      0x22\n        /* \"#utility.yul\":15004:15005   */\n      0x04\n        /* \"#utility.yul\":14997:15012   */\n      mstore\n        /* \"#utility.yul\":15031:15035   */\n      0x24\n        /* \"#utility.yul\":15028:15029   */\n      0x00\n        /* \"#utility.yul\":15021:15036   */\n      revert\n        /* \"#utility.yul\":15048:15368   */\n    tag_93:\n        /* \"#utility.yul\":15092:15098   */\n      0x00\n        /* \"#utility.yul\":15129:15130   */\n      0x02\n        /* \"#utility.yul\":15123:15127   */\n      dup3\n        /* \"#utility.yul\":15119:15131   */\n      div\n        /* \"#utility.yul\":15109:15131   */\n      swap1\n      pop\n        /* \"#utility.yul\":15176:15177   */\n      0x01\n        /* \"#utility.yul\":15170:15174   */\n      dup3\n        /* \"#utility.yul\":15166:15178   */\n      and\n        /* \"#utility.yul\":15197:15215   */\n      dup1\n        /* \"#utility.yul\":15187:15268   */\n      tag_322\n      jumpi\n        /* \"#utility.yul\":15253:15257   */\n      0x7f\n        /* \"#utility.yul\":15245:15251   */\n      dup3\n        /* \"#utility.yul\":15241:15258   */\n      and\n        /* \"#utility.yul\":15231:15258   */\n      swap2\n      pop\n        /* \"#utility.yul\":15187:15268   */\n    tag_322:\n        /* \"#utility.yul\":15315:15317   */\n      0x20\n        /* \"#utility.yul\":15307:15313   */\n      dup3\n        /* \"#utility.yul\":15304:15318   */\n      lt\n        /* \"#utility.yul\":15284:15302   */\n      dup2\n        /* \"#utility.yul\":15281:15319   */\n      sub\n        /* \"#utility.yul\":15278:15362   */\n      tag_323\n      jumpi\n        /* \"#utility.yul\":15334:15352   */\n      tag_324\n      tag_173\n      jump\t// in\n    tag_324:\n        /* \"#utility.yul\":15278:15362   */\n    tag_323:\n        /* \"#utility.yul\":15099:15368   */\n      pop\n        /* \"#utility.yul\":15048:15368   */\n      swap2\n      swap1\n      pop\n      jump\t// out\n        /* \"#utility.yul\":15374:15607   */\n    tag_104:\n        /* \"#utility.yul\":15413:15416   */\n      0x00\n        /* \"#utility.yul\":15436:15460   */\n      tag_326\n        /* \"#utility.yul\":15454:15459   */\n      dup3\n        /* \"#utility.yul\":15436:15460   */\n      tag_130\n      jump\t// in\n    tag_326:\n        /* \"#utility.yul\":15427:15460   */\n      swap2\n      pop\n        /* \"#utility.yul\":15482:15548   */\n      0xffffffffffffffffffffffffffffffffffffffffffffffffffffffffffffffff\n        /* \"#utility.yul\":15475:15480   */\n      dup3\n        /* \"#utility.yul\":15472:15549   */\n      sub\n        /* \"#utility.yul\":15469:15572   */\n      tag_327\n      jumpi\n        /* \"#utility.yul\":15552:15570   */\n      tag_328\n      tag_161\n      jump\t// in\n    tag_328:\n        /* \"#utility.yul\":15469:15572   */\n    tag_327:\n        /* \"#utility.yul\":15599:15600   */\n      0x01\n        /* \"#utility.yul\":15592:15597   */\n      dup3\n        /* \"#utility.yul\":15588:15601   */\n      add\n        /* \"#utility.yul\":15581:15601   */\n      swap1\n      pop\n        /* \"#utility.yul\":15374:15607   */\n      swap2\n      swap1\n      pop\n      jump\t// out\n        /* \"#utility.yul\":15613:15838   */\n    tag_174:\n        /* \"#utility.yul\":15753:15787   */\n      0x4f6e6c7920617070726f766572732063616e20617070726f7665207468652072\n        /* \"#utility.yul\":15749:15750   */\n      0x00\n        /* \"#utility.yul\":15741:15747   */\n      dup3\n        /* \"#utility.yul\":15737:15751   */\n      add\n        /* \"#utility.yul\":15730:15788   */\n      mstore\n        /* \"#utility.yul\":15822:15830   */\n      0x6571756573740000000000000000000000000000000000000000000000000000\n        /* \"#utility.yul\":15817:15819   */\n      0x20\n        /* \"#utility.yul\":15809:15815   */\n      dup3\n        /* \"#utility.yul\":15805:15820   */\n      add\n        /* \"#utility.yul\":15798:15831   */\n      mstore\n        /* \"#utility.yul\":15613:15838   */\n      pop\n      jump\t// out\n        /* \"#utility.yul\":15844:16210   */\n    tag_175:\n        /* \"#utility.yul\":15986:15989   */\n      0x00\n        /* \"#utility.yul\":16007:16074   */\n      tag_331\n        /* \"#utility.yul\":16071:16073   */\n      0x26\n        /* \"#utility.yul\":16066:16069   */\n      dup4\n        /* \"#utility.yul\":16007:16074   */\n      tag_145\n      jump\t// in\n    tag_331:\n        /* \"#utility.yul\":16000:16074   */\n      swap2\n      pop\n        /* \"#utility.yul\":16083:16176   */\n      tag_332\n        /* \"#utility.yul\":16172:16175   */\n      dup3\n        /* \"#utility.yul\":16083:16176   */\n      tag_174\n      jump\t// in\n    tag_332:\n        /* \"#utility.yul\":16201:16203   */\n      0x40\n        /* \"#utility.yul\":16196:16199   */\n      dup3\n        /* \"#utility.yul\":16192:16204   */\n      add\n        /* \"#utility.yul\":16185:16204   */\n      swap1\n      pop\n        /* \"#utility.yul\":15844:16210   */\n      swap2\n      swap1\n      pop\n      jump\t// out\n        /* \"#utility.yul\":16216:16635   */\n    tag_115:\n        /* \"#utility.yul\":16382:16386   */\n      0x00\n        /* \"#utility.yul\":16420:16422   */\n      0x20\n        /* \"#utility.yul\":16409:16418   */\n      dup3\n        /* \"#utility.yul\":16405:16423   */\n      add\n        /* \"#utility.yul\":16397:16423   */\n      swap1\n      pop\n        /* \"#utility.yul\":16469:16478   */\n      dup2\n        /* \"#utility.yul\":16463:16467   */\n      dup2\n        /* \"#utility.yul\":16459:16479   */\n      sub\n        /* \"#utility.yul\":16455:16456   */\n      0x00\n        /* \"#utility.yul\":16444:16453   */\n      dup4\n        /* \"#utility.yul\":16440:16457   */\n      add\n        /* \"#utility.yul\":16433:16480   */\n      mstore\n        /* \"#utility.yul\":16497:16628   */\n      tag_334\n        /* \"#utility.yul\":16623:16627   */\n      dup2\n        /* \"#utility.yul\":16497:16628   */\n      tag_175\n      jump\t// in\n    tag_334:\n        /* \"#utility.yul\":16489:16628   */\n      swap1\n      pop\n        /* \"#utility.yul\":16216:16635   */\n      swap2\n      swap1\n      pop\n      jump\t// out\n        /* \"#utility.yul\":16641:16864   */\n    tag_176:\n        /* \"#utility.yul\":16781:16815   */\n      0x4164647265737320616c726561647920617070726f7665642074686520726571\n        /* \"#utility.yul\":16777:16778   */\n      0x00\n        /* \"#utility.yul\":16769:16775   */\n      dup3\n        /* \"#utility.yul\":16765:16779   */\n      add\n        /* \"#utility.yul\":16758:16816   */\n      mstore\n        /* \"#utility.yul\":16850:16856   */\n      0x7565737400000000000000000000000000000000000000000000000000000000\n        /* \"#utility.yul\":16845:16847   */\n      0x20\n        /* \"#utility.yul\":16837:16843   */\n      dup3\n        /* \"#utility.yul\":16833:16848   */\n      add\n        /* \"#utility.yul\":16826:16857   */\n      mstore\n        /* \"#utility.yul\":16641:16864   */\n      pop\n      jump\t// out\n        /* \"#utility.yul\":16870:17236   */\n    tag_177:\n        /* \"#utility.yul\":17012:17015   */\n      0x00\n        /* \"#utility.yul\":17033:17100   */\n      tag_337\n        /* \"#utility.yul\":17097:17099   */\n      0x24\n        /* \"#utility.yul\":17092:17095   */\n      dup4\n        /* \"#utility.yul\":17033:17100   */\n      tag_145\n      jump\t// in\n    tag_337:\n        /* \"#utility.yul\":17026:17100   */\n      swap2\n      pop\n        /* \"#utility.yul\":17109:17202   */\n      tag_338\n        /* \"#utility.yul\":17198:17201   */\n      dup3\n        /* \"#utility.yul\":17109:17202   */\n      tag_176\n      jump\t// in\n    tag_338:\n        /* \"#utility.yul\":17227:17229   */\n      0x40\n        /* \"#utility.yul\":17222:17225   */\n      dup3\n        /* \"#utility.yul\":17218:17230   */\n      add\n        /* \"#utility.yul\":17211:17230   */\n      swap1\n      pop\n        /* \"#utility.yul\":16870:17236   */\n      swap2\n      swap1\n      pop\n      jump\t// out\n        /* \"#utility.yul\":17242:17661   */\n    tag_118:\n        /* \"#utility.yul\":17408:17412   */\n      0x00\n        /* \"#utility.yul\":17446:17448   */\n      0x20\n        /* \"#utility.yul\":17435:17444   */\n      dup3\n        /* \"#utility.yul\":17431:17449   */\n      add\n        /* \"#utility.yul\":17423:17449   */\n      swap1\n      pop\n        /* \"#utility.yul\":17495:17504   */\n      dup2\n        /* \"#utility.yul\":17489:17493   */\n      dup2\n        /* \"#utility.yul\":17485:17505   */\n      sub\n        /* \"#utility.yul\":17481:17482   */\n      0x00\n        /* \"#utility.yul\":17470:17479   */\n      dup4\n        /* \"#utility.yul\":17466:17483   */\n      add\n        /* \"#utility.yul\":17459:17506   */\n      mstore\n        /* \"#utility.yul\":17523:17654   */\n      tag_340\n        /* \"#utility.yul\":17649:17653   */\n      dup2\n        /* \"#utility.yul\":17523:17654   */\n      tag_177\n      jump\t// in\n    tag_340:\n        /* \"#utility.yul\":17515:17654   */\n      swap1\n      pop\n        /* \"#utility.yul\":17242:17661   */\n      swap2\n      swap1\n      pop\n      jump\t// out\n\n    auxdata: 0xa2646970667358221220b4eebcb34bdeb4e3b9b0e7811331b1322d2934151a65347e3aec7e3832293eda64736f6c634300080d0033\n}\n","bytecode":{"linkReferences":{},"object":"608060405234801561001057600080fd5b50336000806101000a81548173ffffffffffffffffffffffffffffffffffffffff021916908373ffffffffffffffffffffffffffffffffffffffff16021790555061176d806100606000396000f3fe60806040526004361061008a5760003560e01c80636cf4c88f116100595780636cf4c88f146101a457806381d12c58146101cd5780638a9cfd551461020e578063b646c19414610237578063d7d1bbdb14610260576100e0565b806303441006146100e55780630a1443911461010e5780633410452a1461014b5780634051ddac14610176576100e0565b366100e057423373ffffffffffffffffffffffffffffffffffffffff167f73a19dd210f1a7f902193214c0ee91dd35ee5b4d920cba8d519eca65a7b488ca346040516100d69190610dd1565b60405180910390a3005b600080fd5b3480156100f157600080fd5b5061010c60048036038101906101079190610e2c565b610289565b005b34801561011a57600080fd5b5061013560048036038101906101309190610eb7565b610563565b6040516101429190610eff565b60405180910390f35b34801561015757600080fd5b50610160610583565b60405161016d9190610dd1565b60405180910390f35b34801561018257600080fd5b5061018b61058d565b60405161019b9493929190610f29565b60405180910390f35b3480156101b057600080fd5b506101cb60048036038101906101c69190610eb7565b6105c9565b005b3480156101d957600080fd5b506101f460048036038101906101ef9190610e2c565b61070e565b604051610205959493929190611007565b60405180910390f35b34801561021a57600080fd5b5061023560048036038101906102309190611196565b6107f9565b005b34801561024357600080fd5b5061025e60048036038101906102599190610eb7565b6109e1565b005b34801561026c57600080fd5b5061028760048036038101906102829190610e2c565b610b26565b005b60008054906101000a900473ffffffffffffffffffffffffffffffffffffffff1673ffffffffffffffffffffffffffffffffffffffff163373ffffffffffffffffffffffffffffffffffffffff16148061032c5750600360003373ffffffffffffffffffffffffffffffffffffffff1673ffffffffffffffffffffffffffffffffffffffff16815260200190815260200160002060009054906101000a900460ff165b61036b576040517f08c379a000000000000000000000000000000000000000000000000000000000815260040161036290611277565b60405180910390fd5b6000600160008381526020019081526020016000209050600260045461039191906112f5565b8160030154116103d6576040517f08c379a00000000000000000000000000000000000000000000000000000000081526004016103cd90611398565b60405180910390fd5b8060020160149054906101000a900460ff1615610428576040517f08c379a000000000000000000000000000000000000000000000000000000000815260040161041f90611404565b60405180910390fd5b60008160020160009054906101000a900473ffffffffffffffffffffffffffffffffffffffff1673ffffffffffffffffffffffffffffffffffffffff16826001015460405161047690611455565b60006040518083038185875af1925050503d80600081146104b3576040519150601f19603f3d011682016040523d82523d6000602084013e6104b8565b606091505b50509050806104fc576040517f08c379a00000000000000000000000000000000000000000000000000000000081526004016104f3906114b6565b60405180910390fd5b60018260020160146101000a81548160ff02191690831515021790555042833373ffffffffffffffffffffffffffffffffffffffff167ff671d6cda6553dfaaf0258586d1d6fbdf92fb380a75b7c27dd07324ac9001b0d60405160405180910390a4505050565b60036020528060005260406000206000915054906101000a900460ff1681565b6000600254905090565b6000806000804760025460045460008054906101000a900473ffffffffffffffffffffffffffffffffffffffff16935093509350935090919293565b60008054906101000a900473ffffffffffffffffffffffffffffffffffffffff1673ffffffffffffffffffffffffffffffffffffffff163373ffffffffffffffffffffffffffffffffffffffff1614610657576040517f08c379a000000000000000000000000000000000000000000000000000000000815260040161064e90611522565b60405180910390fd5b6000600360008373ffffffffffffffffffffffffffffffffffffffff1673ffffffffffffffffffffffffffffffffffffffff16815260200190815260200160002060006101000a81548160ff021916908315150217905550600460008154809291906106c290611542565b9190505550428173ffffffffffffffffffffffffffffffffffffffff167fbf3ba3d7191a13c4127d1868d4d7e27913f22e462c5bf0fa544b6532b3c9f07760405160405180910390a350565b60016020528060005260406000206000915090508060000180546107319061159a565b80601f016020809104026020016040519081016040528092919081815260200182805461075d9061159a565b80156107aa5780601f1061077f576101008083540402835291602001916107aa565b820191906000526020600020905b81548152906001019060200180831161078d57829003601f168201915b5050505050908060010154908060020160009054906101000a900473ffffffffffffffffffffffffffffffffffffffff16908060020160149054906101000a900460ff16908060030154905085565b60008054906101000a900473ffffffffffffffffffffffffffffffffffffffff1673ffffffffffffffffffffffffffffffffffffffff163373ffffffffffffffffffffffffffffffffffffffff16148061089c5750600360003373ffffffffffffffffffffffffffffffffffffffff1673ffffffffffffffffffffffffffffffffffffffff16815260200190815260200160002060009054906101000a900460ff165b6108db576040517f08c379a00000000000000000000000000000000000000000000000000000000081526004016108d290611277565b60405180910390fd5b600060016000600260008154809291906108f4906115cb565b919050558152602001908152602001600020905083816000019080519060200190610920929190610d15565b50828160010181905550818160020160006101000a81548173ffffffffffffffffffffffffffffffffffffffff021916908373ffffffffffffffffffffffffffffffffffffffff16021790555060008160020160146101000a81548160ff02191690831515021790555060008160030181905550426002543373ffffffffffffffffffffffffffffffffffffffff167f7920722cc1545f7b96cbc17d5dad10302e32f646bdb446d0a56fcce0438dd06460405160405180910390a450505050565b60008054906101000a900473ffffffffffffffffffffffffffffffffffffffff1673ffffffffffffffffffffffffffffffffffffffff163373ffffffffffffffffffffffffffffffffffffffff1614610a6f576040517f08c379a0000000000000000000000000000000000000000000000000000000008152600401610a6690611522565b60405180910390fd5b6001600360008373ffffffffffffffffffffffffffffffffffffffff1673ffffffffffffffffffffffffffffffffffffffff16815260200190815260200160002060006101000a81548160ff02191690831515021790555060046000815480929190610ada906115cb565b9190505550428173ffffffffffffffffffffffffffffffffffffffff167ffbbd3197d26d1b4dadcb997234c5f493bf7ff894e92965a7f3dd47551d04f5c960405160405180910390a350565b6000600160008381526020019081526020016000209050600360003373ffffffffffffffffffffffffffffffffffffffff1673ffffffffffffffffffffffffffffffffffffffff16815260200190815260200160002060009054906101000a900460ff16610bc9576040517f08c379a0000000000000000000000000000000000000000000000000000000008152600401610bc090611685565b60405180910390fd5b8060040160003373ffffffffffffffffffffffffffffffffffffffff1673ffffffffffffffffffffffffffffffffffffffff16815260200190815260200160002060009054906101000a900460ff1615610c58576040517f08c379a0000000000000000000000000000000000000000000000000000000008152600401610c4f90611717565b60405180910390fd5b60018160040160003373ffffffffffffffffffffffffffffffffffffffff1673ffffffffffffffffffffffffffffffffffffffff16815260200190815260200160002060006101000a81548160ff021916908315150217905550806003016000815480929190610cc7906115cb565b919050555042823373ffffffffffffffffffffffffffffffffffffffff167f72eac37cab79fc1aa17a72d288b91435145fd43511852c3780092d368f07181d60405160405180910390a45050565b828054610d219061159a565b90600052602060002090601f016020900481019282610d435760008555610d8a565b82601f10610d5c57805160ff1916838001178555610d8a565b82800160010185558215610d8a579182015b82811115610d89578251825591602001919060010190610d6e565b5b509050610d979190610d9b565b5090565b5b80821115610db4576000816000905550600101610d9c565b5090565b6000819050919050565b610dcb81610db8565b82525050565b6000602082019050610de66000830184610dc2565b92915050565b6000604051905090565b600080fd5b600080fd5b610e0981610db8565b8114610e1457600080fd5b50565b600081359050610e2681610e00565b92915050565b600060208284031215610e4257610e41610df6565b5b6000610e5084828501610e17565b91505092915050565b600073ffffffffffffffffffffffffffffffffffffffff82169050919050565b6000610e8482610e59565b9050919050565b610e9481610e79565b8114610e9f57600080fd5b50565b600081359050610eb181610e8b565b92915050565b600060208284031215610ecd57610ecc610df6565b5b6000610edb84828501610ea2565b91505092915050565b60008115159050919050565b610ef981610ee4565b82525050565b6000602082019050610f146000830184610ef0565b92915050565b610f2381610e79565b82525050565b6000608082019050610f3e6000830187610dc2565b610f4b6020830186610dc2565b610f586040830185610dc2565b610f656060830184610f1a565b95945050505050565b600081519050919050565b600082825260208201905092915050565b60005b83811015610fa8578082015181840152602081019050610f8d565b83811115610fb7576000848401525b50505050565b6000601f19601f8301169050919050565b6000610fd982610f6e565b610fe38185610f79565b9350610ff3818560208601610f8a565b610ffc81610fbd565b840191505092915050565b600060a08201905081810360008301526110218188610fce565b90506110306020830187610dc2565b61103d6040830186610f1a565b61104a6060830185610ef0565b6110576080830184610dc2565b9695505050505050565b600080fd5b600080fd5b7f4e487b7100000000000000000000000000000000000000000000000000000000600052604160045260246000fd5b6110a382610fbd565b810181811067ffffffffffffffff821117156110c2576110c161106b565b5b80604052505050565b60006110d5610dec565b90506110e1828261109a565b919050565b600067ffffffffffffffff8211156111015761110061106b565b5b61110a82610fbd565b9050602081019050919050565b82818337600083830152505050565b6000611139611134846110e6565b6110cb565b90508281526020810184848401111561115557611154611066565b5b611160848285611117565b509392505050565b600082601f83011261117d5761117c611061565b5b813561118d848260208601611126565b91505092915050565b6000806000606084860312156111af576111ae610df6565b5b600084013567ffffffffffffffff8111156111cd576111cc610dfb565b5b6111d986828701611168565b93505060206111ea86828701610e17565b92505060406111fb86828701610ea2565b9150509250925092565b7f4f6e6c79206f776e657220616e6420617070726f766572732063616e2072657160008201527f7565737420776974686472617721000000000000000000000000000000000000602082015250565b6000611261602e83610f79565b915061126c82611205565b604082019050919050565b6000602082019050818103600083015261129081611254565b9050919050565b7f4e487b7100000000000000000000000000000000000000000000000000000000600052601260045260246000fd5b7f4e487b7100000000000000000000000000000000000000000000000000000000600052601160045260246000fd5b600061130082610db8565b915061130b83610db8565b92508261131b5761131a611297565b5b828204905092915050565b7f4e6f7420656e6f7567687420617070726f76616c20746f2066696e697368207460008201527f6865207265717565737400000000000000000000000000000000000000000000602082015250565b6000611382602a83610f79565b915061138d82611326565b604082019050919050565b600060208201905081810360008301526113b181611375565b9050919050565b7f526571756573742077617320616c72656164792066696e697368656400000000600082015250565b60006113ee601c83610f79565b91506113f9826113b8565b602082019050919050565b6000602082019050818103600083015261141d816113e1565b9050919050565b600081905092915050565b50565b600061143f600083611424565b915061144a8261142f565b600082019050919050565b600061146082611432565b9150819050919050565b7f5472616e73666572206661696c65642e00000000000000000000000000000000600082015250565b60006114a0601083610f79565b91506114ab8261146a565b602082019050919050565b600060208201905081810360008301526114cf81611493565b9050919050565b7f4f6e6c79206f776e65722063616e2061646420617070726f7665727321000000600082015250565b600061150c601d83610f79565b9150611517826114d6565b602082019050919050565b6000602082019050818103600083015261153b816114ff565b9050919050565b600061154d82610db8565b9150600082036115605761155f6112c6565b5b600182039050919050565b7f4e487b7100000000000000000000000000000000000000000000000000000000600052602260045260246000fd5b600060028204905060018216806115b257607f821691505b6020821081036115c5576115c461156b565b5b50919050565b60006115d682610db8565b91507fffffffffffffffffffffffffffffffffffffffffffffffffffffffffffffffff8203611608576116076112c6565b5b600182019050919050565b7f4f6e6c7920617070726f766572732063616e20617070726f766520746865207260008201527f6571756573740000000000000000000000000000000000000000000000000000602082015250565b600061166f602683610f79565b915061167a82611613565b604082019050919050565b6000602082019050818103600083015261169e81611662565b9050919050565b7f4164647265737320616c726561647920617070726f766564207468652072657160008201527f7565737400000000000000000000000000000000000000000000000000000000602082015250565b6000611701602483610f79565b915061170c826116a5565b604082019050919050565b60006020820190508181036000830152611730816116f4565b905091905056fea2646970667358221220b4eebcb34bdeb4e3b9b0e7811331b1322d2934151a65347e3aec7e3832293eda64736f6c634300080d0033","opcodes":"PUSH1 0x80 PUSH1 0x40 MSTORE CALLVALUE DUP1 ISZERO PUSH2 0x10 JUMPI PUSH1 0x0 DUP1 REVERT JUMPDEST POP CALLER PUSH1 0x0 DUP1 PUSH2 0x100 EXP DUP2 SLOAD DUP2 PUSH20 0xFFFFFFFFFFFFFFFFFFFFFFFFFFFFFFFFFFFFFFFF MUL NOT AND SWAP1 DUP4 PUSH20 0xFFFFFFFFFFFFFFFFFFFFFFFFFFFFFFFFFFFFFFFF AND MUL OR SWAP1 SSTORE POP PUSH2 0x176D DUP1 PUSH2 0x60 PUSH1 0x0 CODECOPY PUSH1 0x0 RETURN INVALID PUSH1 0x80 PUSH1 0x40 MSTORE PUSH1 0x4 CALLDATASIZE LT PUSH2 0x8A JUMPI PUSH1 0x0 CALLDATALOAD PUSH1 0xE0 SHR DUP1 PUSH4 0x6CF4C88F GT PUSH2 0x59 JUMPI DUP1 PUSH4 0x6CF4C88F EQ PUSH2 0x1A4 JUMPI DUP1 PUSH4 0x81D12C58 EQ PUSH2 0x1CD JUMPI DUP1 PUSH4 0x8A9CFD55 EQ PUSH2 0x20E JUMPI DUP1 PUSH4 0xB646C194 EQ PUSH2 0x237 JUMPI DUP1 PUSH4 0xD7D1BBDB EQ PUSH2 0x260 JUMPI PUSH2 0xE0 JUMP JUMPDEST DUP1 PUSH4 0x3441006 EQ PUSH2 0xE5 JUMPI DUP1 PUSH4 0xA144391 EQ PUSH2 0x10E JUMPI DUP1 PUSH4 0x3410452A EQ PUSH2 0x14B JUMPI DUP1 PUSH4 0x4051DDAC EQ PUSH2 0x176 JUMPI PUSH2 0xE0 JUMP JUMPDEST CALLDATASIZE PUSH2 0xE0 JUMPI TIMESTAMP CALLER PUSH20 0xFFFFFFFFFFFFFFFFFFFFFFFFFFFFFFFFFFFFFFFF AND PUSH32 0x73A19DD210F1A7F902193214C0EE91DD35EE5B4D920CBA8D519ECA65A7B488CA CALLVALUE PUSH1 0x40 MLOAD PUSH2 0xD6 SWAP2 SWAP1 PUSH2 0xDD1 JUMP JUMPDEST PUSH1 0x40 MLOAD DUP1 SWAP2 SUB SWAP1 LOG3 STOP JUMPDEST PUSH1 0x0 DUP1 REVERT JUMPDEST CALLVALUE DUP1 ISZERO PUSH2 0xF1 JUMPI PUSH1 0x0 DUP1 REVERT JUMPDEST POP PUSH2 0x10C PUSH1 0x4 DUP1 CALLDATASIZE SUB DUP2 ADD SWAP1 PUSH2 0x107 SWAP2 SWAP1 PUSH2 0xE2C JUMP JUMPDEST PUSH2 0x289 JUMP JUMPDEST STOP JUMPDEST CALLVALUE DUP1 ISZERO PUSH2 0x11A JUMPI PUSH1 0x0 DUP1 REVERT JUMPDEST POP PUSH2 0x135 PUSH1 0x4 DUP1 CALLDATASIZE SUB DUP2 ADD SWAP1 PUSH2 0x130 SWAP2 SWAP1 PUSH2 0xEB7 JUMP JUMPDEST PUSH2 0x563 JUMP JUMPDEST PUSH1 0x40 MLOAD PUSH2 0x142 SWAP2 SWAP1 PUSH2 0xEFF JUMP JUMPDEST PUSH1 0x40 MLOAD DUP1 SWAP2 SUB SWAP1 RETURN JUMPDEST CALLVALUE DUP1 ISZERO PUSH2 0x157 JUMPI PUSH1 0x0 DUP1 REVERT JUMPDEST POP PUSH2 0x160 PUSH2 0x583 JUMP JUMPDEST PUSH1 0x40 MLOAD PUSH2 0x16D SWAP2 SWAP1 PUSH2 0xDD1 JUMP JUMPDEST PUSH1 0x40 MLOAD DUP1 SWAP2 SUB SWAP1 RETURN JUMPDEST CALLVALUE DUP1 ISZERO PUSH2 0x182 JUMPI PUSH1 0x0 DUP1 REVERT JUMPDEST POP PUSH2 0x18B PUSH2 0x58D JUMP JUMPDEST PUSH1 0x40 MLOAD PUSH2 0x19B SWAP5 SWAP4 SWAP3 SWAP2 SWAP1 PUSH2 0xF29 JUMP JUMPDEST PUSH1 0x40 MLOAD DUP1 SWAP2 SUB SWAP1 RETURN JUMPDEST CALLVALUE DUP1 ISZERO PUSH2 0x1B0 JUMPI PUSH1 0x0 DUP1 REVERT JUMPDEST POP PUSH2 0x1CB PUSH1 0x4 DUP1 CALLDATASIZE SUB DUP2 ADD SWAP1 PUSH2 0x1C6 SWAP2 SWAP1 PUSH2 0xEB7 JUMP JUMPDEST PUSH2 0x5C9 JUMP JUMPDEST STOP JUMPDEST CALLVALUE DUP1 ISZERO PUSH2 0x1D9 JUMPI PUSH1 0x0 DUP1 REVERT JUMPDEST POP PUSH2 0x1F4 PUSH1 0x4 DUP1 CALLDATASIZE SUB DUP2 ADD SWAP1 PUSH2 0x1EF SWAP2 SWAP1 PUSH2 0xE2C JUMP JUMPDEST PUSH2 0x70E JUMP JUMPDEST PUSH1 0x40 MLOAD PUSH2 0x205 SWAP6 SWAP5 SWAP4 SWAP3 SWAP2 SWAP1 PUSH2 0x1007 JUMP JUMPDEST PUSH1 0x40 MLOAD DUP1 SWAP2 SUB SWAP1 RETURN JUMPDEST CALLVALUE DUP1 ISZERO PUSH2 0x21A JUMPI PUSH1 0x0 DUP1 REVERT JUMPDEST POP PUSH2 0x235 PUSH1 0x4 DUP1 CALLDATASIZE SUB DUP2 ADD SWAP1 PUSH2 0x230 SWAP2 SWAP1 PUSH2 0x1196 JUMP JUMPDEST PUSH2 0x7F9 JUMP JUMPDEST STOP JUMPDEST CALLVALUE DUP1 ISZERO PUSH2 0x243 JUMPI PUSH1 0x0 DUP1 REVERT JUMPDEST POP PUSH2 0x25E PUSH1 0x4 DUP1 CALLDATASIZE SUB DUP2 ADD SWAP1 PUSH2 0x259 SWAP2 SWAP1 PUSH2 0xEB7 JUMP JUMPDEST PUSH2 0x9E1 JUMP JUMPDEST STOP JUMPDEST CALLVALUE DUP1 ISZERO PUSH2 0x26C JUMPI PUSH1 0x0 DUP1 REVERT JUMPDEST POP PUSH2 0x287 PUSH1 0x4 DUP1 CALLDATASIZE SUB DUP2 ADD SWAP1 PUSH2 0x282 SWAP2 SWAP1 PUSH2 0xE2C JUMP JUMPDEST PUSH2 0xB26 JUMP JUMPDEST STOP JUMPDEST PUSH1 0x0 DUP1 SLOAD SWAP1 PUSH2 0x100 EXP SWAP1 DIV PUSH20 0xFFFFFFFFFFFFFFFFFFFFFFFFFFFFFFFFFFFFFFFF AND PUSH20 0xFFFFFFFFFFFFFFFFFFFFFFFFFFFFFFFFFFFFFFFF AND CALLER PUSH20 0xFFFFFFFFFFFFFFFFFFFFFFFFFFFFFFFFFFFFFFFF AND EQ DUP1 PUSH2 0x32C JUMPI POP PUSH1 0x3 PUSH1 0x0 CALLER PUSH20 0xFFFFFFFFFFFFFFFFFFFFFFFFFFFFFFFFFFFFFFFF AND PUSH20 0xFFFFFFFFFFFFFFFFFFFFFFFFFFFFFFFFFFFFFFFF AND DUP2 MSTORE PUSH1 0x20 ADD SWAP1 DUP2 MSTORE PUSH1 0x20 ADD PUSH1 0x0 KECCAK256 PUSH1 0x0 SWAP1 SLOAD SWAP1 PUSH2 0x100 EXP SWAP1 DIV PUSH1 0xFF AND JUMPDEST PUSH2 0x36B JUMPI PUSH1 0x40 MLOAD PUSH32 0x8C379A000000000000000000000000000000000000000000000000000000000 DUP2 MSTORE PUSH1 0x4 ADD PUSH2 0x362 SWAP1 PUSH2 0x1277 JUMP JUMPDEST PUSH1 0x40 MLOAD DUP1 SWAP2 SUB SWAP1 REVERT JUMPDEST PUSH1 0x0 PUSH1 0x1 PUSH1 0x0 DUP4 DUP2 MSTORE PUSH1 0x20 ADD SWAP1 DUP2 MSTORE PUSH1 0x20 ADD PUSH1 0x0 KECCAK256 SWAP1 POP PUSH1 0x2 PUSH1 0x4 SLOAD PUSH2 0x391 SWAP2 SWAP1 PUSH2 0x12F5 JUMP JUMPDEST DUP2 PUSH1 0x3 ADD SLOAD GT PUSH2 0x3D6 JUMPI PUSH1 0x40 MLOAD PUSH32 0x8C379A000000000000000000000000000000000000000000000000000000000 DUP2 MSTORE PUSH1 0x4 ADD PUSH2 0x3CD SWAP1 PUSH2 0x1398 JUMP JUMPDEST PUSH1 0x40 MLOAD DUP1 SWAP2 SUB SWAP1 REVERT JUMPDEST DUP1 PUSH1 0x2 ADD PUSH1 0x14 SWAP1 SLOAD SWAP1 PUSH2 0x100 EXP SWAP1 DIV PUSH1 0xFF AND ISZERO PUSH2 0x428 JUMPI PUSH1 0x40 MLOAD PUSH32 0x8C379A000000000000000000000000000000000000000000000000000000000 DUP2 MSTORE PUSH1 0x4 ADD PUSH2 0x41F SWAP1 PUSH2 0x1404 JUMP JUMPDEST PUSH1 0x40 MLOAD DUP1 SWAP2 SUB SWAP1 REVERT JUMPDEST PUSH1 0x0 DUP2 PUSH1 0x2 ADD PUSH1 0x0 SWAP1 SLOAD SWAP1 PUSH2 0x100 EXP SWAP1 DIV PUSH20 0xFFFFFFFFFFFFFFFFFFFFFFFFFFFFFFFFFFFFFFFF AND PUSH20 0xFFFFFFFFFFFFFFFFFFFFFFFFFFFFFFFFFFFFFFFF AND DUP3 PUSH1 0x1 ADD SLOAD PUSH1 0x40 MLOAD PUSH2 0x476 SWAP1 PUSH2 0x1455 JUMP JUMPDEST PUSH1 0x0 PUSH1 0x40 MLOAD DUP1 DUP4 SUB DUP2 DUP6 DUP8 GAS CALL SWAP3 POP POP POP RETURNDATASIZE DUP1 PUSH1 0x0 DUP2 EQ PUSH2 0x4B3 JUMPI PUSH1 0x40 MLOAD SWAP2 POP PUSH1 0x1F NOT PUSH1 0x3F RETURNDATASIZE ADD AND DUP3 ADD PUSH1 0x40 MSTORE RETURNDATASIZE DUP3 MSTORE RETURNDATASIZE PUSH1 0x0 PUSH1 0x20 DUP5 ADD RETURNDATACOPY PUSH2 0x4B8 JUMP JUMPDEST PUSH1 0x60 SWAP2 POP JUMPDEST POP POP SWAP1 POP DUP1 PUSH2 0x4FC JUMPI PUSH1 0x40 MLOAD PUSH32 0x8C379A000000000000000000000000000000000000000000000000000000000 DUP2 MSTORE PUSH1 0x4 ADD PUSH2 0x4F3 SWAP1 PUSH2 0x14B6 JUMP JUMPDEST PUSH1 0x40 MLOAD DUP1 SWAP2 SUB SWAP1 REVERT JUMPDEST PUSH1 0x1 DUP3 PUSH1 0x2 ADD PUSH1 0x14 PUSH2 0x100 EXP DUP2 SLOAD DUP2 PUSH1 0xFF MUL NOT AND SWAP1 DUP4 ISZERO ISZERO MUL OR SWAP1 SSTORE POP TIMESTAMP DUP4 CALLER PUSH20 0xFFFFFFFFFFFFFFFFFFFFFFFFFFFFFFFFFFFFFFFF AND PUSH32 0xF671D6CDA6553DFAAF0258586D1D6FBDF92FB380A75B7C27DD07324AC9001B0D PUSH1 0x40 MLOAD PUSH1 0x40 MLOAD DUP1 SWAP2 SUB SWAP1 LOG4 POP POP POP JUMP JUMPDEST PUSH1 0x3 PUSH1 0x20 MSTORE DUP1 PUSH1 0x0 MSTORE PUSH1 0x40 PUSH1 0x0 KECCAK256 PUSH1 0x0 SWAP2 POP SLOAD SWAP1 PUSH2 0x100 EXP SWAP1 DIV PUSH1 0xFF AND DUP2 JUMP JUMPDEST PUSH1 0x0 PUSH1 0x2 SLOAD SWAP1 POP SWAP1 JUMP JUMPDEST PUSH1 0x0 DUP1 PUSH1 0x0 DUP1 SELFBALANCE PUSH1 0x2 SLOAD PUSH1 0x4 SLOAD PUSH1 0x0 DUP1 SLOAD SWAP1 PUSH2 0x100 EXP SWAP1 DIV PUSH20 0xFFFFFFFFFFFFFFFFFFFFFFFFFFFFFFFFFFFFFFFF AND SWAP4 POP SWAP4 POP SWAP4 POP SWAP4 POP SWAP1 SWAP2 SWAP3 SWAP4 JUMP JUMPDEST PUSH1 0x0 DUP1 SLOAD SWAP1 PUSH2 0x100 EXP SWAP1 DIV PUSH20 0xFFFFFFFFFFFFFFFFFFFFFFFFFFFFFFFFFFFFFFFF AND PUSH20 0xFFFFFFFFFFFFFFFFFFFFFFFFFFFFFFFFFFFFFFFF AND CALLER PUSH20 0xFFFFFFFFFFFFFFFFFFFFFFFFFFFFFFFFFFFFFFFF AND EQ PUSH2 0x657 JUMPI PUSH1 0x40 MLOAD PUSH32 0x8C379A000000000000000000000000000000000000000000000000000000000 DUP2 MSTORE PUSH1 0x4 ADD PUSH2 0x64E SWAP1 PUSH2 0x1522 JUMP JUMPDEST PUSH1 0x40 MLOAD DUP1 SWAP2 SUB SWAP1 REVERT JUMPDEST PUSH1 0x0 PUSH1 0x3 PUSH1 0x0 DUP4 PUSH20 0xFFFFFFFFFFFFFFFFFFFFFFFFFFFFFFFFFFFFFFFF AND PUSH20 0xFFFFFFFFFFFFFFFFFFFFFFFFFFFFFFFFFFFFFFFF AND DUP2 MSTORE PUSH1 0x20 ADD SWAP1 DUP2 MSTORE PUSH1 0x20 ADD PUSH1 0x0 KECCAK256 PUSH1 0x0 PUSH2 0x100 EXP DUP2 SLOAD DUP2 PUSH1 0xFF MUL NOT AND SWAP1 DUP4 ISZERO ISZERO MUL OR SWAP1 SSTORE POP PUSH1 0x4 PUSH1 0x0 DUP2 SLOAD DUP1 SWAP3 SWAP2 SWAP1 PUSH2 0x6C2 SWAP1 PUSH2 0x1542 JUMP JUMPDEST SWAP2 SWAP1 POP SSTORE POP TIMESTAMP DUP2 PUSH20 0xFFFFFFFFFFFFFFFFFFFFFFFFFFFFFFFFFFFFFFFF AND PUSH32 0xBF3BA3D7191A13C4127D1868D4D7E27913F22E462C5BF0FA544B6532B3C9F077 PUSH1 0x40 MLOAD PUSH1 0x40 MLOAD DUP1 SWAP2 SUB SWAP1 LOG3 POP JUMP JUMPDEST PUSH1 0x1 PUSH1 0x20 MSTORE DUP1 PUSH1 0x0 MSTORE PUSH1 0x40 PUSH1 0x0 KECCAK256 PUSH1 0x0 SWAP2 POP SWAP1 POP DUP1 PUSH1 0x0 ADD DUP1 SLOAD PUSH2 0x731 SWAP1 PUSH2 0x159A JUMP JUMPDEST DUP1 PUSH1 0x1F ADD PUSH1 0x20 DUP1 SWAP2 DIV MUL PUSH1 0x20 ADD PUSH1 0x40 MLOAD SWAP1 DUP2 ADD PUSH1 0x40 MSTORE DUP1 SWAP3 SWAP2 SWAP1 DUP2 DUP2 MSTORE PUSH1 0x20 ADD DUP3 DUP1 SLOAD PUSH2 0x75D SWAP1 PUSH2 0x159A JUMP JUMPDEST DUP1 ISZERO PUSH2 0x7AA JUMPI DUP1 PUSH1 0x1F LT PUSH2 0x77F JUMPI PUSH2 0x100 DUP1 DUP4 SLOAD DIV MUL DUP4 MSTORE SWAP2 PUSH1 0x20 ADD SWAP2 PUSH2 0x7AA JUMP JUMPDEST DUP3 ADD SWAP2 SWAP1 PUSH1 0x0 MSTORE PUSH1 0x20 PUSH1 0x0 KECCAK256 SWAP1 JUMPDEST DUP2 SLOAD DUP2 MSTORE SWAP1 PUSH1 0x1 ADD SWAP1 PUSH1 0x20 ADD DUP1 DUP4 GT PUSH2 0x78D JUMPI DUP3 SWAP1 SUB PUSH1 0x1F AND DUP3 ADD SWAP2 JUMPDEST POP POP POP POP POP SWAP1 DUP1 PUSH1 0x1 ADD SLOAD SWAP1 DUP1 PUSH1 0x2 ADD PUSH1 0x0 SWAP1 SLOAD SWAP1 PUSH2 0x100 EXP SWAP1 DIV PUSH20 0xFFFFFFFFFFFFFFFFFFFFFFFFFFFFFFFFFFFFFFFF AND SWAP1 DUP1 PUSH1 0x2 ADD PUSH1 0x14 SWAP1 SLOAD SWAP1 PUSH2 0x100 EXP SWAP1 DIV PUSH1 0xFF AND SWAP1 DUP1 PUSH1 0x3 ADD SLOAD SWAP1 POP DUP6 JUMP JUMPDEST PUSH1 0x0 DUP1 SLOAD SWAP1 PUSH2 0x100 EXP SWAP1 DIV PUSH20 0xFFFFFFFFFFFFFFFFFFFFFFFFFFFFFFFFFFFFFFFF AND PUSH20 0xFFFFFFFFFFFFFFFFFFFFFFFFFFFFFFFFFFFFFFFF AND CALLER PUSH20 0xFFFFFFFFFFFFFFFFFFFFFFFFFFFFFFFFFFFFFFFF AND EQ DUP1 PUSH2 0x89C JUMPI POP PUSH1 0x3 PUSH1 0x0 CALLER PUSH20 0xFFFFFFFFFFFFFFFFFFFFFFFFFFFFFFFFFFFFFFFF AND PUSH20 0xFFFFFFFFFFFFFFFFFFFFFFFFFFFFFFFFFFFFFFFF AND DUP2 MSTORE PUSH1 0x20 ADD SWAP1 DUP2 MSTORE PUSH1 0x20 ADD PUSH1 0x0 KECCAK256 PUSH1 0x0 SWAP1 SLOAD SWAP1 PUSH2 0x100 EXP SWAP1 DIV PUSH1 0xFF AND JUMPDEST PUSH2 0x8DB JUMPI PUSH1 0x40 MLOAD PUSH32 0x8C379A000000000000000000000000000000000000000000000000000000000 DUP2 MSTORE PUSH1 0x4 ADD PUSH2 0x8D2 SWAP1 PUSH2 0x1277 JUMP JUMPDEST PUSH1 0x40 MLOAD DUP1 SWAP2 SUB SWAP1 REVERT JUMPDEST PUSH1 0x0 PUSH1 0x1 PUSH1 0x0 PUSH1 0x2 PUSH1 0x0 DUP2 SLOAD DUP1 SWAP3 SWAP2 SWAP1 PUSH2 0x8F4 SWAP1 PUSH2 0x15CB JUMP JUMPDEST SWAP2 SWAP1 POP SSTORE DUP2 MSTORE PUSH1 0x20 ADD SWAP1 DUP2 MSTORE PUSH1 0x20 ADD PUSH1 0x0 KECCAK256 SWAP1 POP DUP4 DUP2 PUSH1 0x0 ADD SWAP1 DUP1 MLOAD SWAP1 PUSH1 0x20 ADD SWAP1 PUSH2 0x920 SWAP3 SWAP2 SWAP1 PUSH2 0xD15 JUMP JUMPDEST POP DUP3 DUP2 PUSH1 0x1 ADD DUP2 SWAP1 SSTORE POP DUP2 DUP2 PUSH1 0x2 ADD PUSH1 0x0 PUSH2 0x100 EXP DUP2 SLOAD DUP2 PUSH20 0xFFFFFFFFFFFFFFFFFFFFFFFFFFFFFFFFFFFFFFFF MUL NOT AND SWAP1 DUP4 PUSH20 0xFFFFFFFFFFFFFFFFFFFFFFFFFFFFFFFFFFFFFFFF AND MUL OR SWAP1 SSTORE POP PUSH1 0x0 DUP2 PUSH1 0x2 ADD PUSH1 0x14 PUSH2 0x100 EXP DUP2 SLOAD DUP2 PUSH1 0xFF MUL NOT AND SWAP1 DUP4 ISZERO ISZERO MUL OR SWAP1 SSTORE POP PUSH1 0x0 DUP2 PUSH1 0x3 ADD DUP2 SWAP1 SSTORE POP TIMESTAMP PUSH1 0x2 SLOAD CALLER PUSH20 0xFFFFFFFFFFFFFFFFFFFFFFFFFFFFFFFFFFFFFFFF AND PUSH32 0x7920722CC1545F7B96CBC17D5DAD10302E32F646BDB446D0A56FCCE0438DD064 PUSH1 0x40 MLOAD PUSH1 0x40 MLOAD DUP1 SWAP2 SUB SWAP1 LOG4 POP POP POP POP JUMP JUMPDEST PUSH1 0x0 DUP1 SLOAD SWAP1 PUSH2 0x100 EXP SWAP1 DIV PUSH20 0xFFFFFFFFFFFFFFFFFFFFFFFFFFFFFFFFFFFFFFFF AND PUSH20 0xFFFFFFFFFFFFFFFFFFFFFFFFFFFFFFFFFFFFFFFF AND CALLER PUSH20 0xFFFFFFFFFFFFFFFFFFFFFFFFFFFFFFFFFFFFFFFF AND EQ PUSH2 0xA6F JUMPI PUSH1 0x40 MLOAD PUSH32 0x8C379A000000000000000000000000000000000000000000000000000000000 DUP2 MSTORE PUSH1 0x4 ADD PUSH2 0xA66 SWAP1 PUSH2 0x1522 JUMP JUMPDEST PUSH1 0x40 MLOAD DUP1 SWAP2 SUB SWAP1 REVERT JUMPDEST PUSH1 0x1 PUSH1 0x3 PUSH1 0x0 DUP4 PUSH20 0xFFFFFFFFFFFFFFFFFFFFFFFFFFFFFFFFFFFFFFFF AND PUSH20 0xFFFFFFFFFFFFFFFFFFFFFFFFFFFFFFFFFFFFFFFF AND DUP2 MSTORE PUSH1 0x20 ADD SWAP1 DUP2 MSTORE PUSH1 0x20 ADD PUSH1 0x0 KECCAK256 PUSH1 0x0 PUSH2 0x100 EXP DUP2 SLOAD DUP2 PUSH1 0xFF MUL NOT AND SWAP1 DUP4 ISZERO ISZERO MUL OR SWAP1 SSTORE POP PUSH1 0x4 PUSH1 0x0 DUP2 SLOAD DUP1 SWAP3 SWAP2 SWAP1 PUSH2 0xADA SWAP1 PUSH2 0x15CB JUMP JUMPDEST SWAP2 SWAP1 POP SSTORE POP TIMESTAMP DUP2 PUSH20 0xFFFFFFFFFFFFFFFFFFFFFFFFFFFFFFFFFFFFFFFF AND PUSH32 0xFBBD3197D26D1B4DADCB997234C5F493BF7FF894E92965A7F3DD47551D04F5C9 PUSH1 0x40 MLOAD PUSH1 0x40 MLOAD DUP1 SWAP2 SUB SWAP1 LOG3 POP JUMP JUMPDEST PUSH1 0x0 PUSH1 0x1 PUSH1 0x0 DUP4 DUP2 MSTORE PUSH1 0x20 ADD SWAP1 DUP2 MSTORE PUSH1 0x20 ADD PUSH1 0x0 KECCAK256 SWAP1 POP PUSH1 0x3 PUSH1 0x0 CALLER PUSH20 0xFFFFFFFFFFFFFFFFFFFFFFFFFFFFFFFFFFFFFFFF AND PUSH20 0xFFFFFFFFFFFFFFFFFFFFFFFFFFFFFFFFFFFFFFFF AND DUP2 MSTORE PUSH1 0x20 ADD SWAP1 DUP2 MSTORE PUSH1 0x20 ADD PUSH1 0x0 KECCAK256 PUSH1 0x0 SWAP1 SLOAD SWAP1 PUSH2 0x100 EXP SWAP1 DIV PUSH1 0xFF AND PUSH2 0xBC9 JUMPI PUSH1 0x40 MLOAD PUSH32 0x8C379A000000000000000000000000000000000000000000000000000000000 DUP2 MSTORE PUSH1 0x4 ADD PUSH2 0xBC0 SWAP1 PUSH2 0x1685 JUMP JUMPDEST PUSH1 0x40 MLOAD DUP1 SWAP2 SUB SWAP1 REVERT JUMPDEST DUP1 PUSH1 0x4 ADD PUSH1 0x0 CALLER PUSH20 0xFFFFFFFFFFFFFFFFFFFFFFFFFFFFFFFFFFFFFFFF AND PUSH20 0xFFFFFFFFFFFFFFFFFFFFFFFFFFFFFFFFFFFFFFFF AND DUP2 MSTORE PUSH1 0x20 ADD SWAP1 DUP2 MSTORE PUSH1 0x20 ADD PUSH1 0x0 KECCAK256 PUSH1 0x0 SWAP1 SLOAD SWAP1 PUSH2 0x100 EXP SWAP1 DIV PUSH1 0xFF AND ISZERO PUSH2 0xC58 JUMPI PUSH1 0x40 MLOAD PUSH32 0x8C379A000000000000000000000000000000000000000000000000000000000 DUP2 MSTORE PUSH1 0x4 ADD PUSH2 0xC4F SWAP1 PUSH2 0x1717 JUMP JUMPDEST PUSH1 0x40 MLOAD DUP1 SWAP2 SUB SWAP1 REVERT JUMPDEST PUSH1 0x1 DUP2 PUSH1 0x4 ADD PUSH1 0x0 CALLER PUSH20 0xFFFFFFFFFFFFFFFFFFFFFFFFFFFFFFFFFFFFFFFF AND PUSH20 0xFFFFFFFFFFFFFFFFFFFFFFFFFFFFFFFFFFFFFFFF AND DUP2 MSTORE PUSH1 0x20 ADD SWAP1 DUP2 MSTORE PUSH1 0x20 ADD PUSH1 0x0 KECCAK256 PUSH1 0x0 PUSH2 0x100 EXP DUP2 SLOAD DUP2 PUSH1 0xFF MUL NOT AND SWAP1 DUP4 ISZERO ISZERO MUL OR SWAP1 SSTORE POP DUP1 PUSH1 0x3 ADD PUSH1 0x0 DUP2 SLOAD DUP1 SWAP3 SWAP2 SWAP1 PUSH2 0xCC7 SWAP1 PUSH2 0x15CB JUMP JUMPDEST SWAP2 SWAP1 POP SSTORE POP TIMESTAMP DUP3 CALLER PUSH20 0xFFFFFFFFFFFFFFFFFFFFFFFFFFFFFFFFFFFFFFFF AND PUSH32 0x72EAC37CAB79FC1AA17A72D288B91435145FD43511852C3780092D368F07181D PUSH1 0x40 MLOAD PUSH1 0x40 MLOAD DUP1 SWAP2 SUB SWAP1 LOG4 POP POP JUMP JUMPDEST DUP3 DUP1 SLOAD PUSH2 0xD21 SWAP1 PUSH2 0x159A JUMP JUMPDEST SWAP1 PUSH1 0x0 MSTORE PUSH1 0x20 PUSH1 0x0 KECCAK256 SWAP1 PUSH1 0x1F ADD PUSH1 0x20 SWAP1 DIV DUP2 ADD SWAP3 DUP3 PUSH2 0xD43 JUMPI PUSH1 0x0 DUP6 SSTORE PUSH2 0xD8A JUMP JUMPDEST DUP3 PUSH1 0x1F LT PUSH2 0xD5C JUMPI DUP1 MLOAD PUSH1 0xFF NOT AND DUP4 DUP1 ADD OR DUP6 SSTORE PUSH2 0xD8A JUMP JUMPDEST DUP3 DUP1 ADD PUSH1 0x1 ADD DUP6 SSTORE DUP3 ISZERO PUSH2 0xD8A JUMPI SWAP2 DUP3 ADD JUMPDEST DUP3 DUP2 GT ISZERO PUSH2 0xD89 JUMPI DUP3 MLOAD DUP3 SSTORE SWAP2 PUSH1 0x20 ADD SWAP2 SWAP1 PUSH1 0x1 ADD SWAP1 PUSH2 0xD6E JUMP JUMPDEST JUMPDEST POP SWAP1 POP PUSH2 0xD97 SWAP2 SWAP1 PUSH2 0xD9B JUMP JUMPDEST POP SWAP1 JUMP JUMPDEST JUMPDEST DUP1 DUP3 GT ISZERO PUSH2 0xDB4 JUMPI PUSH1 0x0 DUP2 PUSH1 0x0 SWAP1 SSTORE POP PUSH1 0x1 ADD PUSH2 0xD9C JUMP JUMPDEST POP SWAP1 JUMP JUMPDEST PUSH1 0x0 DUP2 SWAP1 POP SWAP2 SWAP1 POP JUMP JUMPDEST PUSH2 0xDCB DUP2 PUSH2 0xDB8 JUMP JUMPDEST DUP3 MSTORE POP POP JUMP JUMPDEST PUSH1 0x0 PUSH1 0x20 DUP3 ADD SWAP1 POP PUSH2 0xDE6 PUSH1 0x0 DUP4 ADD DUP5 PUSH2 0xDC2 JUMP JUMPDEST SWAP3 SWAP2 POP POP JUMP JUMPDEST PUSH1 0x0 PUSH1 0x40 MLOAD SWAP1 POP SWAP1 JUMP JUMPDEST PUSH1 0x0 DUP1 REVERT JUMPDEST PUSH1 0x0 DUP1 REVERT JUMPDEST PUSH2 0xE09 DUP2 PUSH2 0xDB8 JUMP JUMPDEST DUP2 EQ PUSH2 0xE14 JUMPI PUSH1 0x0 DUP1 REVERT JUMPDEST POP JUMP JUMPDEST PUSH1 0x0 DUP2 CALLDATALOAD SWAP1 POP PUSH2 0xE26 DUP2 PUSH2 0xE00 JUMP JUMPDEST SWAP3 SWAP2 POP POP JUMP JUMPDEST PUSH1 0x0 PUSH1 0x20 DUP3 DUP5 SUB SLT ISZERO PUSH2 0xE42 JUMPI PUSH2 0xE41 PUSH2 0xDF6 JUMP JUMPDEST JUMPDEST PUSH1 0x0 PUSH2 0xE50 DUP5 DUP3 DUP6 ADD PUSH2 0xE17 JUMP JUMPDEST SWAP2 POP POP SWAP3 SWAP2 POP POP JUMP JUMPDEST PUSH1 0x0 PUSH20 0xFFFFFFFFFFFFFFFFFFFFFFFFFFFFFFFFFFFFFFFF DUP3 AND SWAP1 POP SWAP2 SWAP1 POP JUMP JUMPDEST PUSH1 0x0 PUSH2 0xE84 DUP3 PUSH2 0xE59 JUMP JUMPDEST SWAP1 POP SWAP2 SWAP1 POP JUMP JUMPDEST PUSH2 0xE94 DUP2 PUSH2 0xE79 JUMP JUMPDEST DUP2 EQ PUSH2 0xE9F JUMPI PUSH1 0x0 DUP1 REVERT JUMPDEST POP JUMP JUMPDEST PUSH1 0x0 DUP2 CALLDATALOAD SWAP1 POP PUSH2 0xEB1 DUP2 PUSH2 0xE8B JUMP JUMPDEST SWAP3 SWAP2 POP POP JUMP JUMPDEST PUSH1 0x0 PUSH1 0x20 DUP3 DUP5 SUB SLT ISZERO PUSH2 0xECD JUMPI PUSH2 0xECC PUSH2 0xDF6 JUMP JUMPDEST JUMPDEST PUSH1 0x0 PUSH2 0xEDB DUP5 DUP3 DUP6 ADD PUSH2 0xEA2 JUMP JUMPDEST SWAP2 POP POP SWAP3 SWAP2 POP POP JUMP JUMPDEST PUSH1 0x0 DUP2 ISZERO ISZERO SWAP1 POP SWAP2 SWAP1 POP JUMP JUMPDEST PUSH2 0xEF9 DUP2 PUSH2 0xEE4 JUMP JUMPDEST DUP3 MSTORE POP POP JUMP JUMPDEST PUSH1 0x0 PUSH1 0x20 DUP3 ADD SWAP1 POP PUSH2 0xF14 PUSH1 0x0 DUP4 ADD DUP5 PUSH2 0xEF0 JUMP JUMPDEST SWAP3 SWAP2 POP POP JUMP JUMPDEST PUSH2 0xF23 DUP2 PUSH2 0xE79 JUMP JUMPDEST DUP3 MSTORE POP POP JUMP JUMPDEST PUSH1 0x0 PUSH1 0x80 DUP3 ADD SWAP1 POP PUSH2 0xF3E PUSH1 0x0 DUP4 ADD DUP8 PUSH2 0xDC2 JUMP JUMPDEST PUSH2 0xF4B PUSH1 0x20 DUP4 ADD DUP7 PUSH2 0xDC2 JUMP JUMPDEST PUSH2 0xF58 PUSH1 0x40 DUP4 ADD DUP6 PUSH2 0xDC2 JUMP JUMPDEST PUSH2 0xF65 PUSH1 0x60 DUP4 ADD DUP5 PUSH2 0xF1A JUMP JUMPDEST SWAP6 SWAP5 POP POP POP POP POP JUMP JUMPDEST PUSH1 0x0 DUP2 MLOAD SWAP1 POP SWAP2 SWAP1 POP JUMP JUMPDEST PUSH1 0x0 DUP3 DUP3 MSTORE PUSH1 0x20 DUP3 ADD SWAP1 POP SWAP3 SWAP2 POP POP JUMP JUMPDEST PUSH1 0x0 JUMPDEST DUP4 DUP2 LT ISZERO PUSH2 0xFA8 JUMPI DUP1 DUP3 ADD MLOAD DUP2 DUP5 ADD MSTORE PUSH1 0x20 DUP2 ADD SWAP1 POP PUSH2 0xF8D JUMP JUMPDEST DUP4 DUP2 GT ISZERO PUSH2 0xFB7 JUMPI PUSH1 0x0 DUP5 DUP5 ADD MSTORE JUMPDEST POP POP POP POP JUMP JUMPDEST PUSH1 0x0 PUSH1 0x1F NOT PUSH1 0x1F DUP4 ADD AND SWAP1 POP SWAP2 SWAP1 POP JUMP JUMPDEST PUSH1 0x0 PUSH2 0xFD9 DUP3 PUSH2 0xF6E JUMP JUMPDEST PUSH2 0xFE3 DUP2 DUP6 PUSH2 0xF79 JUMP JUMPDEST SWAP4 POP PUSH2 0xFF3 DUP2 DUP6 PUSH1 0x20 DUP7 ADD PUSH2 0xF8A JUMP JUMPDEST PUSH2 0xFFC DUP2 PUSH2 0xFBD JUMP JUMPDEST DUP5 ADD SWAP2 POP POP SWAP3 SWAP2 POP POP JUMP JUMPDEST PUSH1 0x0 PUSH1 0xA0 DUP3 ADD SWAP1 POP DUP2 DUP2 SUB PUSH1 0x0 DUP4 ADD MSTORE PUSH2 0x1021 DUP2 DUP9 PUSH2 0xFCE JUMP JUMPDEST SWAP1 POP PUSH2 0x1030 PUSH1 0x20 DUP4 ADD DUP8 PUSH2 0xDC2 JUMP JUMPDEST PUSH2 0x103D PUSH1 0x40 DUP4 ADD DUP7 PUSH2 0xF1A JUMP JUMPDEST PUSH2 0x104A PUSH1 0x60 DUP4 ADD DUP6 PUSH2 0xEF0 JUMP JUMPDEST PUSH2 0x1057 PUSH1 0x80 DUP4 ADD DUP5 PUSH2 0xDC2 JUMP JUMPDEST SWAP7 SWAP6 POP POP POP POP POP POP JUMP JUMPDEST PUSH1 0x0 DUP1 REVERT JUMPDEST PUSH1 0x0 DUP1 REVERT JUMPDEST PUSH32 0x4E487B7100000000000000000000000000000000000000000000000000000000 PUSH1 0x0 MSTORE PUSH1 0x41 PUSH1 0x4 MSTORE PUSH1 0x24 PUSH1 0x0 REVERT JUMPDEST PUSH2 0x10A3 DUP3 PUSH2 0xFBD JUMP JUMPDEST DUP2 ADD DUP2 DUP2 LT PUSH8 0xFFFFFFFFFFFFFFFF DUP3 GT OR ISZERO PUSH2 0x10C2 JUMPI PUSH2 0x10C1 PUSH2 0x106B JUMP JUMPDEST JUMPDEST DUP1 PUSH1 0x40 MSTORE POP POP POP JUMP JUMPDEST PUSH1 0x0 PUSH2 0x10D5 PUSH2 0xDEC JUMP JUMPDEST SWAP1 POP PUSH2 0x10E1 DUP3 DUP3 PUSH2 0x109A JUMP JUMPDEST SWAP2 SWAP1 POP JUMP JUMPDEST PUSH1 0x0 PUSH8 0xFFFFFFFFFFFFFFFF DUP3 GT ISZERO PUSH2 0x1101 JUMPI PUSH2 0x1100 PUSH2 0x106B JUMP JUMPDEST JUMPDEST PUSH2 0x110A DUP3 PUSH2 0xFBD JUMP JUMPDEST SWAP1 POP PUSH1 0x20 DUP2 ADD SWAP1 POP SWAP2 SWAP1 POP JUMP JUMPDEST DUP3 DUP2 DUP4 CALLDATACOPY PUSH1 0x0 DUP4 DUP4 ADD MSTORE POP POP POP JUMP JUMPDEST PUSH1 0x0 PUSH2 0x1139 PUSH2 0x1134 DUP5 PUSH2 0x10E6 JUMP JUMPDEST PUSH2 0x10CB JUMP JUMPDEST SWAP1 POP DUP3 DUP2 MSTORE PUSH1 0x20 DUP2 ADD DUP5 DUP5 DUP5 ADD GT ISZERO PUSH2 0x1155 JUMPI PUSH2 0x1154 PUSH2 0x1066 JUMP JUMPDEST JUMPDEST PUSH2 0x1160 DUP5 DUP3 DUP6 PUSH2 0x1117 JUMP JUMPDEST POP SWAP4 SWAP3 POP POP POP JUMP JUMPDEST PUSH1 0x0 DUP3 PUSH1 0x1F DUP4 ADD SLT PUSH2 0x117D JUMPI PUSH2 0x117C PUSH2 0x1061 JUMP JUMPDEST JUMPDEST DUP2 CALLDATALOAD PUSH2 0x118D DUP5 DUP3 PUSH1 0x20 DUP7 ADD PUSH2 0x1126 JUMP JUMPDEST SWAP2 POP POP SWAP3 SWAP2 POP POP JUMP JUMPDEST PUSH1 0x0 DUP1 PUSH1 0x0 PUSH1 0x60 DUP5 DUP7 SUB SLT ISZERO PUSH2 0x11AF JUMPI PUSH2 0x11AE PUSH2 0xDF6 JUMP JUMPDEST JUMPDEST PUSH1 0x0 DUP5 ADD CALLDATALOAD PUSH8 0xFFFFFFFFFFFFFFFF DUP2 GT ISZERO PUSH2 0x11CD JUMPI PUSH2 0x11CC PUSH2 0xDFB JUMP JUMPDEST JUMPDEST PUSH2 0x11D9 DUP7 DUP3 DUP8 ADD PUSH2 0x1168 JUMP JUMPDEST SWAP4 POP POP PUSH1 0x20 PUSH2 0x11EA DUP7 DUP3 DUP8 ADD PUSH2 0xE17 JUMP JUMPDEST SWAP3 POP POP PUSH1 0x40 PUSH2 0x11FB DUP7 DUP3 DUP8 ADD PUSH2 0xEA2 JUMP JUMPDEST SWAP2 POP POP SWAP3 POP SWAP3 POP SWAP3 JUMP JUMPDEST PUSH32 0x4F6E6C79206F776E657220616E6420617070726F766572732063616E20726571 PUSH1 0x0 DUP3 ADD MSTORE PUSH32 0x7565737420776974686472617721000000000000000000000000000000000000 PUSH1 0x20 DUP3 ADD MSTORE POP JUMP JUMPDEST PUSH1 0x0 PUSH2 0x1261 PUSH1 0x2E DUP4 PUSH2 0xF79 JUMP JUMPDEST SWAP2 POP PUSH2 0x126C DUP3 PUSH2 0x1205 JUMP JUMPDEST PUSH1 0x40 DUP3 ADD SWAP1 POP SWAP2 SWAP1 POP JUMP JUMPDEST PUSH1 0x0 PUSH1 0x20 DUP3 ADD SWAP1 POP DUP2 DUP2 SUB PUSH1 0x0 DUP4 ADD MSTORE PUSH2 0x1290 DUP2 PUSH2 0x1254 JUMP JUMPDEST SWAP1 POP SWAP2 SWAP1 POP JUMP JUMPDEST PUSH32 0x4E487B7100000000000000000000000000000000000000000000000000000000 PUSH1 0x0 MSTORE PUSH1 0x12 PUSH1 0x4 MSTORE PUSH1 0x24 PUSH1 0x0 REVERT JUMPDEST PUSH32 0x4E487B7100000000000000000000000000000000000000000000000000000000 PUSH1 0x0 MSTORE PUSH1 0x11 PUSH1 0x4 MSTORE PUSH1 0x24 PUSH1 0x0 REVERT JUMPDEST PUSH1 0x0 PUSH2 0x1300 DUP3 PUSH2 0xDB8 JUMP JUMPDEST SWAP2 POP PUSH2 0x130B DUP4 PUSH2 0xDB8 JUMP JUMPDEST SWAP3 POP DUP3 PUSH2 0x131B JUMPI PUSH2 0x131A PUSH2 0x1297 JUMP JUMPDEST JUMPDEST DUP3 DUP3 DIV SWAP1 POP SWAP3 SWAP2 POP POP JUMP JUMPDEST PUSH32 0x4E6F7420656E6F7567687420617070726F76616C20746F2066696E6973682074 PUSH1 0x0 DUP3 ADD MSTORE PUSH32 0x6865207265717565737400000000000000000000000000000000000000000000 PUSH1 0x20 DUP3 ADD MSTORE POP JUMP JUMPDEST PUSH1 0x0 PUSH2 0x1382 PUSH1 0x2A DUP4 PUSH2 0xF79 JUMP JUMPDEST SWAP2 POP PUSH2 0x138D DUP3 PUSH2 0x1326 JUMP JUMPDEST PUSH1 0x40 DUP3 ADD SWAP1 POP SWAP2 SWAP1 POP JUMP JUMPDEST PUSH1 0x0 PUSH1 0x20 DUP3 ADD SWAP1 POP DUP2 DUP2 SUB PUSH1 0x0 DUP4 ADD MSTORE PUSH2 0x13B1 DUP2 PUSH2 0x1375 JUMP JUMPDEST SWAP1 POP SWAP2 SWAP1 POP JUMP JUMPDEST PUSH32 0x526571756573742077617320616C72656164792066696E697368656400000000 PUSH1 0x0 DUP3 ADD MSTORE POP JUMP JUMPDEST PUSH1 0x0 PUSH2 0x13EE PUSH1 0x1C DUP4 PUSH2 0xF79 JUMP JUMPDEST SWAP2 POP PUSH2 0x13F9 DUP3 PUSH2 0x13B8 JUMP JUMPDEST PUSH1 0x20 DUP3 ADD SWAP1 POP SWAP2 SWAP1 POP JUMP JUMPDEST PUSH1 0x0 PUSH1 0x20 DUP3 ADD SWAP1 POP DUP2 DUP2 SUB PUSH1 0x0 DUP4 ADD MSTORE PUSH2 0x141D DUP2 PUSH2 0x13E1 JUMP JUMPDEST SWAP1 POP SWAP2 SWAP1 POP JUMP JUMPDEST PUSH1 0x0 DUP2 SWAP1 POP SWAP3 SWAP2 POP POP JUMP JUMPDEST POP JUMP JUMPDEST PUSH1 0x0 PUSH2 0x143F PUSH1 0x0 DUP4 PUSH2 0x1424 JUMP JUMPDEST SWAP2 POP PUSH2 0x144A DUP3 PUSH2 0x142F JUMP JUMPDEST PUSH1 0x0 DUP3 ADD SWAP1 POP SWAP2 SWAP1 POP JUMP JUMPDEST PUSH1 0x0 PUSH2 0x1460 DUP3 PUSH2 0x1432 JUMP JUMPDEST SWAP2 POP DUP2 SWAP1 POP SWAP2 SWAP1 POP JUMP JUMPDEST PUSH32 0x5472616E73666572206661696C65642E00000000000000000000000000000000 PUSH1 0x0 DUP3 ADD MSTORE POP JUMP JUMPDEST PUSH1 0x0 PUSH2 0x14A0 PUSH1 0x10 DUP4 PUSH2 0xF79 JUMP JUMPDEST SWAP2 POP PUSH2 0x14AB DUP3 PUSH2 0x146A JUMP JUMPDEST PUSH1 0x20 DUP3 ADD SWAP1 POP SWAP2 SWAP1 POP JUMP JUMPDEST PUSH1 0x0 PUSH1 0x20 DUP3 ADD SWAP1 POP DUP2 DUP2 SUB PUSH1 0x0 DUP4 ADD MSTORE PUSH2 0x14CF DUP2 PUSH2 0x1493 JUMP JUMPDEST SWAP1 POP SWAP2 SWAP1 POP JUMP JUMPDEST PUSH32 0x4F6E6C79206F776E65722063616E2061646420617070726F7665727321000000 PUSH1 0x0 DUP3 ADD MSTORE POP JUMP JUMPDEST PUSH1 0x0 PUSH2 0x150C PUSH1 0x1D DUP4 PUSH2 0xF79 JUMP JUMPDEST SWAP2 POP PUSH2 0x1517 DUP3 PUSH2 0x14D6 JUMP JUMPDEST PUSH1 0x20 DUP3 ADD SWAP1 POP SWAP2 SWAP1 POP JUMP JUMPDEST PUSH1 0x0 PUSH1 0x20 DUP3 ADD SWAP1 POP DUP2 DUP2 SUB PUSH1 0x0 DUP4 ADD MSTORE PUSH2 0x153B DUP2 PUSH2 0x14FF JUMP JUMPDEST SWAP1 POP SWAP2 SWAP1 POP JUMP JUMPDEST PUSH1 0x0 PUSH2 0x154D DUP3 PUSH2 0xDB8 JUMP JUMPDEST SWAP2 POP PUSH1 0x0 DUP3 SUB PUSH2 0x1560 JUMPI PUSH2 0x155F PUSH2 0x12C6 JUMP JUMPDEST JUMPDEST PUSH1 0x1 DUP3 SUB SWAP1 POP SWAP2 SWAP1 POP JUMP JUMPDEST PUSH32 0x4E487B7100000000000000000000000000000000000000000000000000000000 PUSH1 0x0 MSTORE PUSH1 0x22 PUSH1 0x4 MSTORE PUSH1 0x24 PUSH1 0x0 REVERT JUMPDEST PUSH1 0x0 PUSH1 0x2 DUP3 DIV SWAP1 POP PUSH1 0x1 DUP3 AND DUP1 PUSH2 0x15B2 JUMPI PUSH1 0x7F DUP3 AND SWAP2 POP JUMPDEST PUSH1 0x20 DUP3 LT DUP2 SUB PUSH2 0x15C5 JUMPI PUSH2 0x15C4 PUSH2 0x156B JUMP JUMPDEST JUMPDEST POP SWAP2 SWAP1 POP JUMP JUMPDEST PUSH1 0x0 PUSH2 0x15D6 DUP3 PUSH2 0xDB8 JUMP JUMPDEST SWAP2 POP PUSH32 0xFFFFFFFFFFFFFFFFFFFFFFFFFFFFFFFFFFFFFFFFFFFFFFFFFFFFFFFFFFFFFFFF DUP3 SUB PUSH2 0x1608 JUMPI PUSH2 0x1607 PUSH2 0x12C6 JUMP JUMPDEST JUMPDEST PUSH1 0x1 DUP3 ADD SWAP1 POP SWAP2 SWAP1 POP JUMP JUMPDEST PUSH32 0x4F6E6C7920617070726F766572732063616E20617070726F7665207468652072 PUSH1 0x0 DUP3 ADD MSTORE PUSH32 0x6571756573740000000000000000000000000000000000000000000000000000 PUSH1 0x20 DUP3 ADD MSTORE POP JUMP JUMPDEST PUSH1 0x0 PUSH2 0x166F PUSH1 0x26 DUP4 PUSH2 0xF79 JUMP JUMPDEST SWAP2 POP PUSH2 0x167A DUP3 PUSH2 0x1613 JUMP JUMPDEST PUSH1 0x40 DUP3 ADD SWAP1 POP SWAP2 SWAP1 POP JUMP JUMPDEST PUSH1 0x0 PUSH1 0x20 DUP3 ADD SWAP1 POP DUP2 DUP2 SUB PUSH1 0x0 DUP4 ADD MSTORE PUSH2 0x169E DUP2 PUSH2 0x1662 JUMP JUMPDEST SWAP1 POP SWAP2 SWAP1 POP JUMP JUMPDEST PUSH32 0x4164647265737320616C726561647920617070726F7665642074686520726571 PUSH1 0x0 DUP3 ADD MSTORE PUSH32 0x7565737400000000000000000000000000000000000000000000000000000000 PUSH1 0x20 DUP3 ADD MSTORE POP JUMP JUMPDEST PUSH1 0x0 PUSH2 0x1701 PUSH1 0x24 DUP4 PUSH2 0xF79 JUMP JUMPDEST SWAP2 POP PUSH2 0x170C DUP3 PUSH2 0x16A5 JUMP JUMPDEST PUSH1 0x40 DUP3 ADD SWAP1 POP SWAP2 SWAP1 POP JUMP JUMPDEST PUSH1 0x0 PUSH1 0x20 DUP3 ADD SWAP1 POP DUP2 DUP2 SUB PUSH1 0x0 DUP4 ADD MSTORE PUSH2 0x1730 DUP2 PUSH2 0x16F4 JUMP JUMPDEST SWAP1 POP SWAP2 SWAP1 POP JUMP INVALID LOG2 PUSH5 0x6970667358 0x22 SLT KECCAK256 0xB4 0xEE 0xBC 0xB3 0x4B 0xDE 0xB4 0xE3 0xB9 0xB0 0xE7 DUP2 SGT BALANCE 0xB1 ORIGIN 0x2D 0x29 CALLVALUE ISZERO BYTE PUSH6 0x347E3AEC7E38 ORIGIN 0x29 RETURNDATACOPY 0xDA PUSH5 0x736F6C6343 STOP ADDMOD 0xD STOP CALLER "},"gasEstimates":{"creation":{"codeDepositCost":"1199400","executionCost":"25514","totalCost":"1224914"},"external":{"addApprover(address)":"52940","approveRequest(uint256)":"infinite","approvers(address)":"2868","createRequest(string,uint256,address)":"infinite","finalizeRequest(uint256)":"infinite","getRequestsCount()":"2482","getSummary()":"infinite","removeApprover(address)":"52874","requests(uint256)":"infinite"}},"methodIdentifiers":{"addApprover(address)":"b646c194","approveRequest(uint256)":"d7d1bbdb","approvers(address)":"0a144391","createRequest(string,uint256,address)":"8a9cfd55","finalizeRequest(uint256)":"03441006","getRequestsCount()":"3410452a","getSummary()":"4051ddac","removeApprover(address)":"6cf4c88f","requests(uint256)":"81d12c58"}},"storageLayout":{"storage":[{"astId":43,"contract":"TaskRewardTreasure.sol:TaskRewardTreasure","label":"owner","offset":0,"slot":"0","type":"t_address"},{"astId":48,"contract":"TaskRewardTreasure.sol:TaskRewardTreasure","label":"requests","offset":0,"slot":"1","type":"t_mapping(t_uint256,t_struct(Request)41_storage)"},{"astId":50,"contract":"TaskRewardTreasure.sol:TaskRewardTreasure","label":"requestsCount","offset":0,"slot":"2","type":"t_uint256"},{"astId":54,"contract":"TaskRewardTreasure.sol:TaskRewardTreasure","label":"approvers","offset":0,"slot":"3","type":"t_mapping(t_address,t_bool)"},{"astId":56,"contract":"TaskRewardTreasure.sol:TaskRewardTreasure","label":"approversCount","offset":0,"slot":"4","type":"t_uint256"}],"types":{"t_address":{"encoding":"inplace","label":"address","numberOfBytes":"20"},"t_bool":{"encoding":"inplace","label":"bool","numberOfBytes":"1"},"t_mapping(t_address,t_bool)":{"encoding":"mapping","key":"t_address","label":"mapping(address => bool)","numberOfBytes":"32","value":"t_bool"},"t_mapping(t_uint256,t_struct(Request)41_storage)":{"encoding":"mapping","key":"t_uint256","label":"mapping(uint256 => struct TaskRewardTreasure.Request)","numberOfBytes":"32","value":"t_struct(Request)41_storage"},"t_string_storage":{"encoding":"bytes","label":"string","numberOfBytes":"32"},"t_struct(Request)41_storage":{"encoding":"inplace","label":"struct TaskRewardTreasure.Request","members":[{"astId":28,"contract":"TaskRewardTreasure.sol:TaskRewardTreasure","label":"description","offset":0,"slot":"0","type":"t_string_storage"},{"astId":30,"contract":"TaskRewardTreasure.sol:TaskRewardTreasure","label":"value","offset":0,"slot":"1","type":"t_uint256"},{"astId":32,"contract":"TaskRewardTreasure.sol:TaskRewardTreasure","label":"recipient","offset":0,"slot":"2","type":"t_address"},{"astId":34,"contract":"TaskRewardTreasure.sol:TaskRewardTreasure","label":"complete","offset":20,"slot":"2","type":"t_bool"},{"astId":36,"contract":"TaskRewardTreasure.sol:TaskRewardTreasure","label":"approvalCount","offset":0,"slot":"3","type":"t_uint256"},{"astId":40,"contract":"TaskRewardTreasure.sol:TaskRewardTreasure","label":"approvals","offset":0,"slot":"4","type":"t_mapping(t_address,t_bool)"}],"numberOfBytes":"160"},"t_uint256":{"encoding":"inplace","label":"uint256","numberOfBytes":"32"}}},"userdoc":{"kind":"user","methods":{},"version":1}}